:020000040800F2
:10000000A8120020090100083D1900088912000803
:1000100039190008C10B0008D53E00080000000097
:10002000000000000000000000000000B12B0008EC
:10003000210C000800000000B51C0008A5310008D4
:100040002301000823010008230100082301000800
:100050002301000823010008310C0008190D0008D5
:10006000410D0008690D0008910D000823010008EA
:1000700023010008230100082301000823010008D0
:1000800023010008230100082301000823010008C0
:10009000230100082301000823010008B90D00080E
:1000A00023010008230100082301000823010008A0
:1000B0002301000823010008230100082301000890
:1000C0002301000823010008230100082301000880
:1000D000230100088D350008B9360008E53700080F
:1000E000590C0008F51F000823010008230100082F
:1000F00023010008DFF80CD000F00EFB0048004799
:10010000E9430008A8120020064880470648004737
:10011000FEE7FEE7FEE7FEE7FEE7FEE7FEE7FEE7B7
:10012000FEE7FEE7C5310008F500000840EA0103DC
:100130009B0703D009E008C9121F08C0042AFAD29D
:1001400003E011F8013B00F8013B521EF9D2704761
:100150002DE9FE4F804681EA0300C00F0C46009057
:1001600021F0004123F00045B8EB0200A94105D27F
:100170004046214690461C460B46024623F000406E
:10018000104347D0270DC7F30A00C3F30A5102906A
:10019000401A019040286BDAC3F3130040F4801B2F
:1001A0000098924620B10023D2EB030A63EB0B0BBD
:1001B00001985946C0F14002504600F0E7F9064662
:1001C0000D4650465946019A00F0FFF910EB080021
:1001D0006141002487EA115284EAE7731A4340D050
:1001E000009A62B3019A012A4FEA075215DC001BFC
:1001F00061EB02014FF0004202EA0752CDE90042F2
:10020000001C41F5801132462B4600F036FA03B04F
:10021000BDE8F08F40462146F9E7001B61EB020183
:10022000001C41F5801300185B412018A2F500174F
:1002300047EB030140EAD570B6196D4111E06D0836
:100240004FEA360645EAC0754FEA0752001B61EBDC
:100250000201001C41F5801149084FEA30000019E5
:10026000514132462B4603B0BDE8F04F00F0F6B9DD
:100270000098012240000023D0EB020263EBE07300
:10028000009821464FEAE074B8EB000061EB0401EE
:10029000E9E783F000435BE781F0004158E72DE98F
:1002A000FE4F81EA030404F0004421F00041009471
:1002B0004FF0000B23F0004350EA01045ED052EAF5
:1002C00003045BD0C3F30A54C1F30A552C44A4F2CF
:1002D000F3340194A0FB0254C1F3130141F48011E3
:1002E000C3F3130343F4801301FB024400FB034EEA
:1002F000840A970A44EA815447EA8357A4FB0768B3
:1003000002958D0A05FB07854FEA932C04FB0C54DC
:100310002705029D4FEA065847EA1637B5EB080550
:100320006EEB070C870E920E47EA811742EA8312A2
:10033000A7FB0201B6EB0B0164EB00042B0D43EAB3
:100340000C335E1844EB1C50DA465146E7FB0201C1
:10035000C5F313044FEA0B3343EA14534FEA043254
:10036000019C43EA0603A4F10C040294009CCDE92D
:1003700000B400F082F903B0BDE8F08F0020014620
:10038000F9E72DE9F04D81EA030404F0004B21F078
:10039000004514464FF0000A23F0004150EA0502E0
:1003A00020D054EA01021DD0C5F30A570246C5F316
:1003B0001303C1F31300C1F30A5640F4801543F44C
:1003C0008013A7EB0608101BD64608F2FD3873EB26
:1003D000050002D308F1010801E092185B41B8F171
:1003E000000F03DA00200146BDE8F08D00204FF435
:1003F0008011064684460EE0171B73EB050705D3F4
:10040000121B63EB050306434CEA010C49084FEA53
:10041000300092185B4150EA0107EDD152EA030027
:1004200012D082EA040083EA0501084305D0101BBC
:10043000AB4106D20122002306E000224FF0004328
:1004400002E06FF0010253101AEB06004CEB08516A
:1004500010EB0A0041EB0B01BDE8F04D00F0FEB8D7
:100460000EB5C10F80EAE0700844CA07002140F2CF
:1004700033438DE80E000A460B4600F0FEF803B049
:1004800000BD0EB540F2334102910021CDE90011CB
:100490000A460B4600F0F1F803B000BDC1F30A5262
:1004A00010B5C1F3130140F2FF3341F480119A42B9
:1004B00001DA002010BD40F233439A42A2F23342E7
:1004C00003DC524200F071F810BD904010BD00F006
:1004D000004230F000400AD0C10D01F56071C0F358
:1004E000160042EA0151C20840071143704700203C
:1004F0000146704730B5041E71F1000404DB4FF073
:100500000044404264EB0101141E73F1000405DB5A
:100510001C464FF00043524263EB04038B4208BF7A
:10052000824230BD30B5041E71F1000404DB4FF08F
:100530000044404264EB0101141E73F1000405DB2A
:100540001C464FF00043524263EB0403994208BF3C
:10055000904230BD01F0004330B421F0004150EA38
:10056000010206D00A0DA2F56072C1F31301002A40
:1005700002DC30BC00207047440F44EAC104C100D3
:10058000E01830BC00EBC25000F031B8202A04DB88
:10059000203A00FA02F1002070479140C2F1200396
:1005A00020FA03F3194390407047202A04DB203AD5
:1005B00021FA02F00021704721FA02F3D040C2F183
:1005C00020029140084319467047202A06DBCB17CA
:1005D000203A41FA02F043EAE07306E041FA02F3FE
:1005E000D040C2F1200291400843194670470029CB
:1005F000A8BF7047401C490008BF20F001007047A9
:1006000010B4B0FA80FC00FA0CF050EA010404BF08
:1006100010BC704749B1CCF1200421FA04F411FA5E
:100620000CF118BF012121430843A3EB0C01CB1DA2
:100630004FEA00614FEA102042BF002010BC704713
:1006400000EBC35010440029A4BF10BC7047401CED
:10065000490008BF20F0010010BC704710B5141EFF
:1006600073F1000408DA401C41F1000192185B416B
:100670001A4301D120F0010010BD2DE9F04D924642
:100680009B4611B1B1FA81F202E0B0FA80F2203259
:100690009046FFF77BFF04460F4640EA0A0041EA16
:1006A0000B0153465A46084313D0114653EA010042
:1006B00019D0C8F140025046FFF777FF05460E46B5
:1006C000504659464246FFF761FF084305D00120D6
:1006D00004E020463946BDE8F08D0020054346EA97
:1006E000E0762C4337430A986305E40AA0EB080040
:1006F0000022FD0A44EA47540A3002D50020014690
:10070000E9E7010510196941DDE90845001969416A
:10071000BDE8F04DA2E70000064C074D06E0E0689A
:1007200040F0010394E8070098471034AC42F6D338
:10073000FFF7E4FC5C4700087C47000870B58C18A4
:1007400010F8015B15F0070301D110F8013B2A11E5
:1007500006D110F8012B03E010F8016B01F8016BD2
:100760005B1EF9D12B0705D40023521E0DD401F8CE
:10077000013BFAE710F8013BCB1A921C03E013F897
:10078000015B01F8015B521EF9D5A142D8D30020CC
:1007900070BD21B1826842F00402826003E0826889
:1007A00022F004028260704721B1826842F00102A7
:1007B000826003E0826822F00102826070470000DC
:1007C00010B504460548844207D10121401501F0C7
:1007D000CFFA0021601501F0CBFA10BD00240140D2
:1007E0000A460021816821F0F001114381607047C1
:1007F0000146886D80B270470246002013680B40A6
:100800000BB1012000E000207047000030B5024627
:10081000002000235068104C20400D790C6844EAF9
:1008200005242043506090680C4C2040D1E90354CB
:100830002C438D682C434D7944EA45042043906055
:10084000106B20F0F8700C7D641EE4B2234340EA84
:100850000350106330BD0000FFFEFFFCFDF7FFC03A
:100860001AB143680B43436002E043688B43436023
:100870007047F0B504460D46002000211D2D11DD06
:10088000E06DA5F11E0606EB4607072606FA07F1FE
:100890008843A5F11E0606EB460603FA06F1084357
:1008A000E06534E0132D11DDE068A5F1140606EBD8
:1008B0004607072606FA07F18843A5F1140606EB5A
:1008C000460603FA06F10843E06020E0092D11DD39
:1008D0002069A5F10A0606EB4607072606FA07F186
:1008E0008843A5F10A0606EB460603FA06F108431B
:1008F00020610CE0606905EB4507072606FA07F161
:10090000884305EB450603FA06F108436061072AB0
:100910000FDA206C561E06EB86071F2606FA07F133
:100920008843561E06EB860605FA06F10843206446
:100930004AE00D2A0FDAE06BD61F06EB86071F266A
:1009400006FA07F18843D61F06EB860605FA06F17C
:100950000843E06338E0132A11DAA06BA2F10D0618
:1009600006EB86071F2606FA07F18843A2F10D065B
:1009700006EB860605FA06F10843A06324E0192A6F
:1009800011DA606BA2F1130606EB86071F2606FA42
:1009900007F18843A2F1130606EB860605FA06F175
:1009A0000843606310E0206BA2F1190606EB86078E
:1009B0001F2606FA07F18843A2F1190606EB860600
:1009C00005FA06F108432063F0BD816841F08041DB
:1009D00081607047002101600171417181604FF0B9
:1009E0004071C160002101610121017570477047AC
:1009F00010B500F0D1FD01200149087010BD0000C4
:100A00007C01002001480088704700007E01002022
:100A10002DE9F0411948007830B94FF69270184925
:100A200008800320BDE8F081012003F045FB07208A
:100A300003F042FB112003F03FFBB42000F0F1F87B
:100A400003F020FB8046FFF71CFD06464FF03332D3
:100A50000C4BFFF796FC0446FFF720FD0849088081
:100A600009480078012802D14FF6927008804FF4AF
:100A7000FA7000F0D6F80320D4E700007C010020D3
:100A80007E0100203333F33F8001002008B50120B0
:100A900003460022114600902E2000F091FB012019
:100AA00003460022114600902F2000F089FB012010
:100AB0000346002211460090502000F081FB0120E7
:100AC0000346002211460090512000F079FB0020DF
:100AD0000149087008BD00006102002072B6034899
:100AE0000078401C01490870704700006302002034
:100AF00004480078401E034908700846007800B991
:100B000062B670476302002010B50D48007880B9C6
:100B10004FF4407000F050FF00F014F803F0E8FDCF
:100B200002F038FA02F0F4F901F0E0FD0120044986
:100B3000087000F079FE4FF47A7000F072F810BD82
:100B40006102002008B51D480078B0BB01200346B3
:100B5000002201460090042000F032FB01200346F1
:100B6000002201460090042000F02AFB01200346E9
:100B7000002201460090042000F022FB01200346E1
:100B80000022014600901A2000F01AFB01200346C3
:100B90000022014600901B2000F012FB01210846B4
:100BA00000F02EF80121022000F02AF80121042093
:100BB00000F026F801200149087008BD62020020FB
:100BC00000BFFEE70146002003E001F001021044EF
:100BD00049100029F9D1704710B50020024908706A
:100BE000024800F09FF910BD6D020020D00D0020DA
:100BF00010B5024800F096F910BD0000FC0C002072
:100C000029B1064A52680243044B5A6004E0034A81
:100C100052688243014B5A6070470000002004E094
:100C2000704710B50446204601F02CFD10BD0000B1
:100C300010B500F01BFE012000F010F940B10120BA
:100C400000F006F90348006810B1024908688047BF
:100C500010BD00009803002010B500F007FE4FF40F
:100C6000806000F0FBF848B14FF4806000F0F0F8CD
:100C70002848806A10B12749886A80474FF400608D
:100C800000F0ECF848B14FF4006000F0E1F82148C2
:100C9000C06A10B11F49C86A80474FF4805000F005
:100CA000DDF848B14FF4805000F0D2F81948006BDD
:100CB00010B11849086B80474FF4005000F0CEF88F
:100CC00048B14FF4005000F0C3F81248406B10B127
:100CD0001049486B80474FF4804000F0BFF848B19E
:100CE0004FF4804000F0B4F80A48806B10B1094915
:100CF000886B80474FF4004000F0B0F848B14FF4E3
:100D0000004000F0A5F80348C06B10B10149C86B62
:100D1000804710BD9803002010B500F0A7FD022009
:100D200000F09CF840B1022000F092F803484068BF
:100D300010B102494868804710BD000098030020A8
:100D400010B500F093FD042000F088F840B10420B5
:100D500000F07EF80348806810B102498868804737
:100D600010BD00009803002010B500F07FFD0820A2
:100D700000F074F840B1082000F06AF80348C06839
:100D800010B10249C868804710BD000098030020D8
:100D900010B500F06BFD102000F060F840B110209D
:100DA00000F056F80348006910B10249086980470D
:100DB00010BD00009803002010B500F057FD202062
:100DC00000F04CF840B1202000F042F81F48406984
:100DD00010B11E4948698047402000F03FF840B1FB
:100DE000402000F035F81948806910B1174988692A
:100DF0008047802000F032F840B1802000F028F8D1
:100E00001248C06910B11149C86980474FF4807019
:100E100000F024F848B14FF4807000F019F80B4846
:100E2000006A10B10949086A80474FF4007000F069
:100E300015F848B14FF4007000F00AF80348406A12
:100E400010B10249486A804710BD00009803002095
:100E50000149086070470000140401400146002069
:100E6000034A12680A400AB1012000E000207047DE
:100E700014040140002123498279002A3AD00A460D
:100E8000126803689A430B461A600A1D12680368C9
:100E90009A430B1D1A60027911440A6803681A43C9
:100EA0000A60184A0832126803689A43154B0833DF
:100EB0001A601A1D126803689A43124B0C331A60A9
:100EC0004279102A0ED11A1F126803681A430D4B7B
:100ED00008331A601A1D126803681A43094B0C3351
:100EE0001A600DE00749427911440A6803681A4301
:100EF0000A6005E0027911440A6803689A430A60AF
:100F0000704700000004014010B50146CA880B89F3
:100F10001A448B88D21A0B8992FBF3F403FB142238
:100F200090B210BD00218180C18070470160002314
:100F30008380C3800281704710B502469088D388B1
:100F4000984201D1012000E0002068B99388106820
:100F5000C05C08709088401C138990FBF3F403FB7D
:100F600014009080002010BD4FF0FF30FBE710B55B
:100F70000246D088401C138990FBF3F403FB140055
:100F80009388984201D1012000E0002060B9D38805
:100F90001068C154D088401C138990FBF3F403FB04
:100FA0001400D080002010BD4FF0FF30FBE7F0B5FB
:100FB00002460B46002100240025002000BF35E03A
:100FC000012606FA01F41E6806EA0405A5422CD1A2
:100FD00010684F000326BE40B0431E794F00BE404C
:100FE000304310601E79012E02D01E79022E12D1DC
:100FF00090684F000326BE40B0435E794F00BE406C
:1010000030439060908801268E40B0439E798E4098
:10101000B6B230439080D0684F000326BE40B04344
:10102000DE794F00BE403043D060491C1029C7D341
:10103000F0BDF0B5002300244D07ED0E02FA05F3D4
:10104000CE1000F1200555F826504E07F70E0F265A
:10105000BE40B543CF1000F1200646F82750CE1011
:1010600000F1200555F8265045EA0304CE1000F1A2
:10107000200545F82640F0BD02460020138A0B40AB
:101080000BB1012000E000207047418370470183CD
:10109000704700000220094A1278012A0BD1084A41
:1010A000116805E00A79012A01D1012002E00968EE
:1010B0000029F7D100E00120704700000D02002058
:1010C0001002002001480078704700001402002040
:1010D0002DE9F0474FF0E0218869FFF7D2F9064685
:1010E0000022184BFFF74DF904460D464FF03332FE
:1010F000154B164903C9FFF72BF8804622462B46AD
:10110000FFF7C7F8124A03C2124811490CC803C9B5
:10111000FFF7BFF80446104A104BFFF703FA08D256
:101120004FF03332084B0A4903C9FFF7B2F8084AB7
:1011300003C2074903C9074A03C2054903C9BDE8F9
:10114000F087000080844E4133331040400200207D
:1011500030020020380200201904560E2D321040B3
:1011600070B505460E46002404E029190348FFF730
:10117000E3FE641CB442F8DB70BD0000D00D00201B
:1011800010B50248FFF7C0FE10BD0000D00D0020D2
:1011900070B505460E46002404E029190348FFF700
:1011A000CBFE641CB442F8DB70BD0000FC0C0020D8
:1011B00010B50248FFF7A8FE10BD0000FC0C00208F
:1011C0002DE9FF5F05460C4617469846DDF8389036
:1011D000C5F3071A05F00F0B1F4800EB8A2001909A
:1011E000012000FA0BF080B20090012000FA0AF60C
:1011F0001A480068304040B90121304600F088FDAF
:1012000016480068304315490860012C0CD1B9F12B
:10121000000F04D1DDE90010FFF737FF0BE0DDE937
:101220000010FFF734FF06E0022C04D14A4659466D
:101230000198FFF7FEFE009802908DF80C40032005
:101240008DF80D008DF80E708DF80F8002A90198B1
:10125000FFF7ADFEBDE8FF9F00000240080200203E
:1012600010B5002400F052FA802000F01FFA00F0C0
:101270008DFA0446FE2000F019FA00F087FA0446C1
:1012800000F064FA204610BD02A002F047FE00BF45
:10129000FEE7000020486172646661756C7421206D
:1012A0000D0A000010B54FF480610D48FFF7EDFE08
:1012B00000F096F84FF400710948FFF7E6FE14209D
:1012C00001F04EFF4FF480610548FFF7E0FE022079
:1012D00001F046FF4FF480610148FFF7D6FE10BDD4
:1012E000000002401CB50121084600F011FD4FF43A
:1012F000C060009001208DF8040000208DF80600E9
:101300008DF8070003208DF8050069460148FFF7B6
:101310004EFE1CBD0000024010B54FF480610D4828
:10132000FFF7B3FE00F05CF84FF400710948FFF7D7
:10133000AEFE052001F014FF4FF480610548FFF771
:10134000A6FE052001F00CFF4FF480610148FFF775
:101350009CFE10BD0000024070B50546002400F060
:101360002BF800261BE04FF480611248FFF78DFE3A
:10137000052001F0F5FE4FF480610E48FFF787FE6F
:101380006006040E4FF400710A48FFF775FE08B1BD
:10139000601CC4B2052001F0E3FE701CC6B2082E2A
:1013A000E1DB15B9FFF7B8FF01E0FFF77BFF20464F
:1013B00070BD0000000002401CB54FF400700090AA
:1013C00000208DF804008DF8070003208DF805003B
:1013D00069460248FFF7EBFD1CBD0000000002401B
:1013E0001CB54FF40070009001208DF804008DF8BA
:1013F000060000208DF8070003208DF805006946DF
:101400000148FFF7D4FD1CBD0000024070B5044642
:10141000FFF7E6FF4FF480611548FFF736FE002521
:1014200023E0E00928B14FF400711148FFF72FFEC7
:1014300004E04FF400710E48FFF727FE6006040E2B
:10144000052001F08DFE4FF480610948FFF71FFE73
:10145000052001F085FE4FF480610548FFF715FE79
:10146000052001F07DFE681CC5B2082DD9DB70BDDA
:101470000000024010B5FFF7B3FF4FF400710E48B3
:10148000FFF705FE4FF480610B48FFF700FE0420D4
:1014900001F066FE4FF400710748FFF7F6FD0420E7
:1014A00001F05EFE4FF480610348FFF7EEFD04207B
:1014B00001F056FE10BD00000000024010B5FFF71D
:1014C0008FFF4FF480610E48FFF7DFFD4FF400718E
:1014D0000B48FFF7DAFD042001F042FE4FF4806173
:1014E0000748FFF7D4FD012001F03AFE4FF40071E8
:1014F0000348FFF7CCFD042001F032FE10BD0000D0
:101500000000024010B50024FFF756FF4FF40071B1
:101510001248FFF7BCFD012001F022FE4FF480616C
:101520000E48FFF7B4FD012001F01AFE08E0601C30
:1015300084B2B4F5FA7F03DDFFF7C0FF012010BDD0
:101540004FF400710548FFF797FD0028EFD14FF4E5
:1015500080610248FFF799FD0020F0E7000002409B
:1015600010B540210B48FFF790FD00F089F880216D
:101570000848FFF78AFD142001F0F2FD40210548DC
:10158000FFF785FD022001F0EBFD40210148FFF748
:101590007CFD10BD000402401CB50121022000F0BA
:1015A000B7FBC020009001208DF8040000208DF8CA
:1015B00006008DF8070003208DF8050069460248F3
:1015C000FFF7F5FC1CBD00000004024010B54021EF
:1015D0000B48FFF75AFD00F053F880210848FFF749
:1015E00056FD052001F0BCFD40210548FFF74FFDE9
:1015F000052001F0B5FD40210148FFF746FD10BD73
:101600000004024070B50546002400F027F80026CB
:1016100018E040211048FFF738FD052001F0A0FD3B
:1016200040210D48FFF733FD6006040E80210A4873
:10163000FFF722FD08B1601CC4B2052001F090FD47
:10164000701CC6B2082EE4DB15B9FFF7BFFF01E03E
:10165000FFF786FF204670BD000402401CB58020C5
:10166000009000208DF804008DF8070003208DF80D
:10167000050069460148FFF79AFC1CBD00040240C2
:101680001CB58020009001208DF804008DF8060024
:1016900000208DF8070003208DF8050069460248F8
:1016A000FFF785FC1CBD00000004024070B5044635
:1016B000FFF7E6FF40211448FFF7E7FC00251FE095
:1016C000E00920B180211048FFF7E1FC03E0802110
:1016D0000D48FFF7DAFC6006040E052001F040FD1E
:1016E00040210948FFF7D3FC052001F039FD4021D6
:1016F0000548FFF7CAFC052001F032FD681CC5B2A1
:10170000082DDDDB70BD00000004024010B5FFF7BE
:10171000B7FF80210C48FFF7BAFC40210A48FFF7C9
:10172000B6FC042001F01CFD80210748FFF7ADFC4A
:10173000042001F015FD40210348FFF7A6FC04201A
:1017400001F00EFD10BD00000004024010B5FFF7CF
:1017500097FF40210C48FFF798FC80210A48FFF7CB
:1017600094FC042001F0FCFC40210748FFF78FFCAB
:10177000012001F0F5FC80210348FFF788FC0420DC
:1017800001F0EEFC10BD00000004024010B5002482
:10179000FFF764FF80211148FFF779FC012001F079
:1017A000DFFC40210D48FFF772FC012001F0D8FC5E
:1017B00008E0601C84B2B4F5FA7F03DDFFF7C6FFD2
:1017C000012010BD80210548FFF756FC0028F0D10C
:1017D00040210248FFF759FC0020F2E700040240D4
:1017E00070B504460E46FFF779F926710D48056875
:1017F00005E0A54202D1FFF77BF970BD2D68002DF1
:10180000F7D10848006820B900202060054804602E
:1018100004E004480068206002480460FFF768F9AB
:1018200000BFEAE71002002010B56FF001000F21A1
:10183000002807DA0A07140E084A00F00F031B1FDE
:10184000D45403E00A07130E054A135400BF054899
:10185000007810B901200449087010BD18ED00E0AF
:1018600000E400E00D0200201402002010B5FFF794
:1018700035F9012000F000FA10B1012000F0D2F992
:1018800017480078022825D1012000F023FB00BF73
:10189000312000F0FDFA0028FAD0012000F030FBE2
:1018A00000BF392000F0F4FA0028FAD0032000F03D
:1018B0005BFB00BF00F006FB0C28FBD1002000F012
:1018C000F3F9012000F0E4F90021022000F07EF895
:1018D000FFF71AF9002003490870FFF709F910BD56
:1018E000140200200C0200202DE9F04104460F46AE
:1018F00015460E480078012815D1FFF7EFF827713B
:10190000FFF7C8FB06460A480078B04205D00848F1
:101910000670012D01D101F0F1FC0020054908708D
:10192000FFF7E6F800BFBDE8F08100000D020020DF
:10193000140200200C02002000BFFEE770470000E8
:1019400070B5002100230F22C4781CB3174C246803
:1019500004F4E064C4F5E064C4F30721C1F10404B5
:10196000E3B20A4144789C40E1B2847814402143B8
:101970000C07210E0E4C05786155047804F01F0504
:101980000124AC4005786D11AD0005F1E025C5F8E6
:10199000004109E0047804F01F050124AC40054D26
:1019A0000678761145F8264070BD00000CED00E089
:1019B00000E400E080E100E002490143024A1160D6
:1019C000704700000000FA050CED00E029B1064A5E
:1019D00012680243044B1A6004E0034A126882430F
:1019E000014B1A607047000010ED00E010B5FFF7E2
:1019F0007FF86421114801F07FF9114908600868F7
:101A000004E0411E0D4A515C1154401E0028F8DAD2
:101A100001200A4908700A480068401C084908600B
:101A2000002000E0401C064909688842FADBFFF705
:101A300055F8044801F0E6FC10BD000080020020CB
:101A40000402002080030020052801DD0149086010
:101A500070470000F000002010B54FF692700A4960
:101A600008806420FFF7DDF8052001F0A3F84FF4AB
:101A70009670FFF7D6F8022001F09CF84FF49670AC
:101A8000FFF7CFF810BD0000EC00002001480088EF
:101A900070470000EC0000202DE9F04786B04FF0C1
:101AA000000A5C480078012806D0022820D00328CC
:101AB00077D004281BD140E04FF692705649088039
:101AC000FFF706FB554A03C2FFF792F8022051497F
:101AD0000870012001F06EF84FF4FA70FFF7A1F8DA
:101AE000052001F067F84FF4FA70FFF79AF884E0E8
:101AF0004B480068FEF7B4FC04460D46FFF7E8FAD1
:101B0000804646480CC84046FEF7C3FB06462246C0
:101B10002B46FEF707FD0FD86420FFF782F803205D
:101B200001F048F86420FFF77CF8FFF7D1FA3B4A50
:101B300003C20420374908705FE0FFF739FB824693
:101B4000BAF1180F2EDB18216846FFF721FB02209F
:101B500001F030F86420FFF764F81821684602F0BD
:101B60002BFC58B19DF807109DF8060001EB0020F2
:101B70002949088003202749087006E04FF6917034
:101B800025490880032023490870022001F012F83B
:101B90006420FFF746F8FFF72BF803201D49087073
:101BA0002BE026E01E480068FEF75AFC04460D466E
:101BB000FFF78EFA804619480CC84046FEF769FBCD
:101BC000064622462B46FEF7ADFC11D84FF6927022
:101BD0001149088003200F490870022000F0EAFF35
:101BE0006420FFF71EF8FFF703F803200949087087
:101BF00003E001200749087000BF00BF05480078D6
:101C0000042803D1022006B0BDE8F087014800781F
:101C1000F9E7000030010020EC000020380100202E
:101C2000F00000200349096841EA8001014A11607F
:101C3000704700000070004010B502460020094BBC
:101C4000186820F0030010431860074B1B6843F02E
:101C50000403054C2360012901D130BF00E020BFFF
:101C600010BD00000070004010ED00E001498862E6
:101C70007047000000000E4201460020034A5268EF
:101C80000A400AB1012000E00020704700700040C7
:101C9000014908617047000000000E4201490862D6
:101CA0007047000000000E42014948627047000082
:101CB00000000E4210B5FEF711FF134800780A2805
:101CC00005DA11480078401C0F49087019E000201F
:101CD0000D4908700D480078022812D1FEF7D6FE93
:101CE0000020FFF7D5FF0120FFF7DEFF0020FFF700
:101CF000BDFF01210220FFF769FE01210846FFF721
:101D00009BFFFEF7F5FE10BD0C0200201402002020
:101D100029B1064A12680243044B1A6004E0034AE0
:101D200012688243014B1A60704700001C38024061
:101D300029B1064A12680243044B1A6004E0034AC0
:101D400012688243014B1A60704700002438024039
:101D500029B1064A12680243044B1A6004E0034AA0
:101D600012688243014B1A6070470000203802401D
:101D700029B1064A12680243044B1A6004E0034A80
:101D800012688243014B1A60704700001438024009
:101D9000F0B5002100220023002600240025374F43
:101DA0003F6807F00C0131B1042912D0082913D083
:101DB0000C2934D113E0314F3F1F3F68C7F3423540
:101DC0006F1C4FF0010C0CFA07FC4FEACC37076090
:101DD00033E02B4F076030E02A4F07602DE0274F9C
:101DE0003F6807F47012254F3F6807F44003264F01
:101DF00007EB92473A78012707EB93531F4F3F6851
:101E000007F480362EB91E4F5743B7FBF3F7076030
:101E100004E01C4F5743B7FBF3F707600DE0174F83
:101E20003F1F3F68C7F342356F1C4FF0010C0CFA9F
:101E300007FC4FEACC37076000BF00BF0F4F3F6879
:101E400007F0F0010909114F7C5C0768E740476023
:101E50000A4F3F6807F4E061090A0C4F7C5C476851
:101E6000E7408760054F3F6807F46051C90A074F94
:101E70007C5C4768E740C760F0BD0000083802405E
:101E80000024F400001BB70048020020510200208B
:101E900010B501460022002300204A11012A02D178
:101EA000074C236802E0064C3434236801F01F021B
:101EB000012494401C400CB1012000E0002010BD22
:101EC000003802400248006800F00C007047000033
:101ED000083802400021024A11701146087070470C
:101EE0000238024001490860704700000000474284
:101EF0000021024A117011460870704735380240BF
:101F00000149086670470000000047420149086027
:101F100070470000D8064742002100F44032B2F575
:101F2000403F08D10C4A116821F0C04100F0C04286
:101F30001143094A1160084A3432126822F44032CF
:101F4000054B34331A601A46126800F440331A43C2
:101F5000014B34331A607047003802400149086071
:101F600070470000DC06474201460020034A106823
:101F700020F003000843106070470000083802405A
:101F800038B502460024009400230020CA24184DCE
:101F90002C6053242C6041B1154C1C3C2468144324
:101FA000134D1C3D2C6001201EE0114C1C3C24688C
:101FB00094430F4D1C3D2C6000BF0D4C183C246811
:101FC00004EA1223009C641C0094009CB4F5005F9A
:101FD00001D0002BF1D0064C183C246804EA1224EE
:101FE0000CB9002000E00120FF24014D2C6038BD19
:101FF0002428004010B54FF4805000F0A7F858B1E5
:102000004FF4805000F032F84FF40030FEF720FF1C
:10201000FFF72CFC01F072F910BD014600BF080962
:1020200000EB8000420001F00F001044C0B2704786
:102030000146002204E0501CC2B2A1F10A00C1B264
:102040000A29F8DA100741EA10607047C0F310015E
:1020500041F08001044A126802F0800262EA010144
:10206000014A1160704700000C280040002101095E
:102070008AB242F08002044B1B6803F0800363EADB
:102080000202014B1A6070470C28004001210170C8
:10209000817041700021C1707047000008B50022B6
:1020A000009200200021104A126802F04002CAB9D2
:1020B000421E0D4B1A6000BF0B4A126802F040012D
:1020C000009A521C0092009AB2F5005F01D00029DC
:1020D000F2D0054A126802F040020AB1012002E083
:1020E000002000E0012008BD0C28004003480068E3
:1020F00020F0800001490860704700000C28004073
:1021000070B506460C4600250E4800680E4900EAE8
:102110000105280CE070C5F30420607005F03F0055
:10212000A070C5F3423020705EB9E078FFF775FF0C
:10213000E0706078FFF771FF6070A078FFF76DFFC7
:10214000A07070BD042800403FFFFF0030B501467D
:102150000020002200230D4C246804F004020B4CE4
:10216000383C24680C408D0C21FA05F502EAD5357F
:1021700044EA0503054C343C246804EA11121BB1FF
:1021800094B20CB1012000E0002030BD4028004096
:1021900070B506460C4600250F4800680F4900EA56
:1021A0000105C5F305402070C5F30620607005F0F9
:1021B0007F00A07005F48000000CE0705EB920780C
:1021C000FFF72BFF20706078FFF727FF6070A07883
:1021D000FFF723FFA07070BD002800407F7F7F00C5
:1021E000CA22174B1A6053221A6091B1144A1C3A42
:1021F000126820F004031A43114B1C3B1A60104A6A
:102200001C32126800F004031A430D4B1C331A6091
:1022100011E00B4A1C3A126820F004039A43084B61
:102220001C3B1A60064A1C32126800F004039A43F1
:10223000034B1C331A60FF22014B1A6070470000E9
:102240002428004030B504460025CA2015490860FE
:1022500053200860FFF722FF00B91DE011481C3829
:10226000006820F040000F491C39086008460068EB
:10227000216808430B491C3908600A491439A068D1
:10228000086008460068A18840EA01400549143901
:102290000860FFF72BFF0125FF2002490860284650
:1022A00030BD0000242800402DE9F04105460E46CF
:1022B0001446002765B93648006800F0400000B1B8
:1022C00002E00020E07000BFA06800B919E018E04B
:1022D0002F48006800F0400020B12078FFF79DFEF5
:1022E000074602E00020E07000BFA06820B9207B14
:1022F000FFF793FE074604E0207BFFF78EFE0746BC
:1023000000BF95B120780004617840EA0120A178EF
:102310000843E17840EA0140217B40EA0160A1687E
:102320000843616840EA01071BE02078FFF780FE60
:102330004FEA00486078FFF77BFE48EA0028A07863
:10234000FFF776FE48EA0008E07848EA0048207B7C
:10235000FFF76EFE48EA0060A1680843616840EA42
:102360000107CA200A491C31086053200860B6F5ED
:10237000807F03D106481430076002E0044818301B
:102380000760FF2002491C310860BDE8F0810000B1
:10239000082800402DE9F04105460C46002600279C
:1023A0004DB9607800F01000102804D1607820F05A
:1023B00010000A30607005B908E06078FFF72DFE64
:1023C0000646A078FFF729FE064600BF55B1E07823
:1023D0000004617840EA0120A1780843217840EAAE
:1023E000413611E0E078FFF723FE4FEA00486078BD
:1023F000FFF71EFE48EA0028A078FFF719FE48EA1A
:102400000008207848EA4036CA2012490860532064
:102410000860FFF743FE08B9002714E00E4830407B
:102420000C4920390860FFF761FE0A481C38006833
:1024300000F0200030B900F07FF808B9002702E072
:10244000012700E00127FF20024908603846BDE867
:10245000F0810000242800403FFFFF002DE9F041FB
:1024600005460C46002600274DB92E48006800F0AE
:10247000400000B102E00020E07000BF0DE02948FC
:10248000006800F0400020B12078FFF7C6FD064646
:1024900002E00020E07000BF00BF55B120780004CA
:1024A000617840EA0120A1780843E17840EA0146DA
:1024B00011E02078FFF7BCFD4FEA00486078FFF795
:1024C000B7FD48EA0028A078FFF7B2FD48EA000807
:1024D000E07848EA0046CA2012491C3108605320BF
:1024E0000860FFF7DBFD08B9002713E00E48304015
:1024F0000C4908390860FFF7F9FD0A48006800F048
:10250000200030B900F018F808B9002702E00127D0
:1025100000E00127FF2003491C3108603846BDE870
:10252000F0810000082800407F7F7F000021C170FB
:10253000017041708170704708B500220092002040
:102540000021CA22134B1A6053221A60114A183A0A
:10255000126822F0A0020F4B183B1A6000BF0D4A10
:10256000183A126802F02001009A521C0092009A58
:10257000B2F5004F01D00029F1D0064A183A12688E
:1025800002F020020AB1012000E00020FF22014BEE
:102590001A6008BD242800402DE9F04F91B0044690
:1025A0000E4630222B4904A8FDF7C0FDE078002834
:1025B00014DDE078A0F1010A012000EB9A09E0782F
:1025C000C11700EB91718910A0EB810121B96178ED
:1025D000022901DD012509E0002507E04FF000098F
:1025E0006078022801DD012500E00025E07840F256
:1025F0006D1101FB00916078401E04AA52F8200082
:102600000844A1780844401E0544317805EB450292
:1026100001EBC201C1EB0111727802EB8101C1EB48
:102620000111B27802EB8100FDF72BFF07460A4A41
:102630000A4BFDF7A6FE0022094BCDE90001FDF78C
:1026400087FDCDE90201FDF729FF8346584611B009
:10265000BDE8F08F2C470008FCA9F1D24D62004084
:102660000000E03F70B5044600F030F80546A54292
:1026700001D32D1B02E002482844051B284670BDEB
:10268000853ED85B70B5044600F020F8054600BFD3
:102690002846FFF7E7FFA042FAD370BD10B500F05F
:1026A00015F8044607480068844203D305480068CB
:1026B000241A04E00448204402490968441A2046C8
:1026C00010BD00001C020020853ED85B1CB5FFF742
:1026D00033FF01A90020FFF75BFD69460020FFF7EB
:1026E0000FFD01A96846FFF757FF1CBD10B507484D
:1026F000007850B900F046F800F00CF802210448C8
:10270000FFF76EF801200149087010BD1802002083
:102710002402002000B587B04FF40030FEF798FB8C
:102720004FF40030059000208DF8180008208DF837
:10273000190001208DF81A0005A8FEF79BFB29203F
:102740008DF8000002208DF8010000208DF80200B5
:1027500001208DF803006846FFF7F2F84FF00040C3
:10276000029001AAC10D0020FFF79EFD00214FF449
:102770008050FFF735FD00214FF48070FFF700FC1B
:1027800007B000BD00B585B001210807FFF7D0FAFA
:102790000120FFF783FA0120FFF7E0FB0020FFF79D
:1027A000DDFB0120FFF7A4FB00BF4920FFF770FB12
:1027B0000028FAD04FF48030FFF7AEFB0120FFF77E
:1027C000A5FB0320039004900020029002A8FFF7CD
:1027D00039FD01A8FFF7AAFE6846FFF757FC6946D6
:1027E0000120FFF7D7FD01A90120FFF737FE05B053
:1027F00000BD000070B50446DCB1322C08D2022CBA
:1028000000D20224002201210D48FFF76DF804E0F8
:10281000002202210A48FFF767F8FEF753FC05463D
:10282000022D02D107480068241A204600F00CF857
:1028300004E0002202210248FFF756F870BD0000B4
:1028400024020020200200202DE9F04788B0044631
:1028500000F0D0F8FFF770FE07A90020FFF798FC02
:1028600006A90020FFF74CFC07A906A8FFF794FE75
:102870005A4908602046FDF704FE0746584A594B5E
:10288000FDF70DFDCDE90001FDF708FE04465648B1
:1028900084420AD99DF81E609DF81D909DF81CA0E9
:1028A0009DF81A001930C5B24FE000220020002127
:1028B00000233C27B4FBF7FC07FB1C479DF81EC018
:1028C0006744FAB23C27B4FBF7F4B4FBF7FC07FB10
:1028D0001C479DF81DC06744F8B23C27B4FBF7F4D1
:1028E0001827B4FBF7FC07FB1C479DF81CC0674486
:1028F000F9B21827B4FBF7F79DF81AC06744FBB28A
:102900003C2792FBF7FC07FB1C27FEB23C2792FBFF
:10291000F7F70744F8B23C2790FBF7FC07FB1C07CE
:1029200007F0FF093C2790FBF7F70F44F9B218278F
:1029300091FBF7FC07FB1C1707F0FF0A182791FB18
:10294000F7F71F44FBB21D4600BF9DF81B00C117DF
:1029500000EB91718910A0EB810181B99DF81900FC
:10296000401E2249085CA84219DA9DF81900401E51
:10297000085C95FBF0F100FB1150C5B20FE09DF82B
:102980001900401E1A49085CA84208DA9DF819008F
:10299000401E085C95FBF0F100FB1150C5B28DF8AC
:1029A0000A608DF809908DF808A08DF81450002069
:1029B0008DF80B000490039002AA4FF48071FFF78A
:1029C00073FCFFF7B9FD01210803FFF709FC0121A2
:1029D0000802FFF7D5FA08B0BDE8F0871C02002016
:1029E000FCA9F1D24D62004080F52000204700088C
:1029F0001447000810B54FF48070FFF727FB002143
:102A00004FF48050FFF7ECFB00214FF48070FFF78C
:102A1000B7FA10BD2DE9FC4704460E46904699468C
:102A2000002524B1062E02DDB8F1000F02D10220EC
:102A3000BDE8FC87B01EC1B2204601F02FFD07465D
:102A4000F9B2B01E205C814204D1701E205CB0EB54
:102A5000172F01D0FF20EBE72846691C8DB2205CC0
:102A60008DF800002846691C8DB2205C8DF80100AD
:102A70002846691C8DB2205C8DF802002846691C2E
:102A80008DB2205C8DF80300601901F040FAADF8BA
:102A90000400A81C85B2BDF80400A9F80000B9F82C
:102AA000002061194046FDF741FB9DF800000C49EC
:102AB0000978884201D00320BAE79DF8010008494F
:102AC0004978884201D00420B2E79DF8020010B195
:102AD000012802D1ACE70020AAE700BF0520A7E744
:102AE00074020020AA2004490870012048708870F0
:102AF0000020C87088807047740200202DE9F047DC
:102B00008046894615461E46089F34461D48007873
:102B100004F8010B1B48407804F8010BB8F1000FD2
:102B200006D0B8F1010F07D1012004F8010B03E032
:102B3000002004F8010B00BF00BF1248C07804F861
:102B4000010BFF2D02DD0120BDE8F087294620465C
:102B500001F0C2F904462A4649462046FDF7E6FA46
:102B60002C44A81D38803978304601F097FC824605
:102B70005146204601F0B0F904463888801C388060
:102B80000020E1E77402002010B50024FEF772FC7B
:102B90008020FEF73BFCFEF7B5FC0446FE20FEF766
:102BA00035FCFEF7AFFC0446FEF788FC204610BD5E
:102BB0007047000010B50446062C22D2DFE804F06E
:102BC0002103090F151B07210F4800F00FFA012000
:102BD00010BD07210D4800F009FA0220F8E707218F
:102BE0000B4800F003FA0320F2E70721094800F040
:102BF000FDF90420ECE70721074800F0F7F905206C
:102C0000E6E70020E4E70000C8000020CF00002035
:102C1000D6000020DD000020E400002010B52F4881
:102C2000007820F00100401C2C4908702C49C86A2B
:102C300080472B48016B052088476420FDF7F1FF92
:102C40002648007820F00400001D2449087025491A
:102C5000C86A80472348016B032088476420FDF73A
:102C6000E0FF1E48007820F0080008301B4908707B
:102C70001D49C86A80471C48016B032088476420AF
:102C8000FDF7CFFF1548007820F0100010301349F1
:102C900008701649C86A80471448016B03208847AA
:102CA0006420FDF7BEFF0D48007820F020002030A2
:102CB0000A4908700E49C86A80476420FDF7B1FFD1
:102CC0000648007820F04000403004490870094967
:102CD000C86A80476420FDF7A4FF10BD00000020F3
:102CE000F40000204001002080000020440000206B
:102CF00084010020C0010020F8B505460E467C493D
:102D00000878FDF75FFF074600246420FDF789FF80
:102D1000B6EB470F01DA0020F8BD7548007800F0E7
:102D2000010090B100BF7349886B80470328FAD136
:102D30007049486B804700906420FDF772FF2819A6
:102D4000BDF800100180A41C00BF69480078C0F3E2
:102D50008000E0B100BF6849886B80470328FAD142
:102D60006549486B80470090BDF8000000F47F4043
:102D7000BDF80010C9B2084480B200902819BDF80F
:102D800000100180A41C6420FDF74BFF00BF5848D1
:102D90000078C0F30010E0B100BF5849886B80474D
:102DA0000328FAD15549486B80470090BDF80000D0
:102DB00000F47F40BDF80010C9B2084480B2009012
:102DC0002819BDF800100180A41C6420FDF729FF1C
:102DD00000BF47480078C0F3C000E0B100BF4849D9
:102DE000886B80470328FAD14549486B804700909B
:102DF000BDF8000000F47F40BDF80010C9B20844DF
:102E000080B200902819BDF800100180A41C642035
:102E1000FDF707FF00BF36480078C0F34010E0B16F
:102E200000BF3849886B80470328FAD13549486B81
:102E300080470090BDF8000000F47F40BDF800100E
:102E4000C9B2084480B200902819BDF80010018072
:102E5000A41C6420FDF7E5FE00BF25480078C0F300
:102E60008010E0B100BF2849886B80470328FAD161
:102E70002549486B80470090BDF8000000F47F4072
:102E8000BDF80010C9B2084480B200902819BDF8FE
:102E900000100180A41C6420FDF7C3FE00BF4FF4A6
:102EA0007A70FDF7BEFE12480078C0F34000E0B132
:102EB00000BF1649886B80470328FAD11349486B35
:102EC00080470090BDF8000000F47F40BDF800107E
:102ED000C9B2084480B200902819BDF800100180E2
:102EE000A41C6420FDF79DFE00BF204614E70000EF
:102EF00000000020F400002040010020800000209D
:102F00004400002084010020C001002008000020AF
:102F10000EB5C8220F491048FEF708F800200090AF
:102F2000019001234FF4E13202210290084600F0A3
:102F30001DFE0A4800231A4602210090084600F0B0
:102F40006FFF0749022000F045FF00200549087087
:102F50000EBD0000DC0D0020D00D0020692F000800
:102F6000013000086D02002070B504460D46012CAA
:102F700003D1E9B20148FDF7FAFF70BDD00D002082
:102F800070B504460D46AAB22146022000F010FF9B
:102F900070BD00000EB5C8220B490C48FDF7C6FFF6
:102FA00000200090019001234FF41652022102905C
:102FB000184600F0DBFD064800231A460221009067
:102FC000012000F02DFF0EBD080D0020FC0C00209C
:102FD000D52F000870B504460D46012C03D1E9B287
:102FE0000148FDF7C4FF70BDFC0C002070B504461D
:102FF0000D46AAB22146012000F0DAFE70BD0000A5
:1030000001200149087070476D0200200CB50020B6
:10301000019000903E48006840F480303C490860D0
:1030200000BF3B48006800F4003000900198401C4D
:103030000190009818B90198B0F5A06FF1D134480B
:10304000006800F4003010B10120009001E0002081
:1030500000900098012859D12E48006840F00400E3
:103060002C4908600846006840F0020008600846E5
:10307000006840F00100086025482430006840F0F6
:103080008050234924310860C8142349086000BFD8
:103090002148406800F010000028F9D11C48083091
:1030A00000681B4908310860084600680860084647
:1030B000006808600846006820F47D000860084643
:1030C000006840F40D0008601148006840F080700E
:1030D0000F49086000BF0E48006800F0007000282B
:1030E000F9D00B480830006820F003000849083187
:1030F00008600846006840F00300086000BF04480C
:103100000830006800F00C000C28F8D10CBD00005D
:1031100000380240003C0240007000402DE9F14FB1
:10312000FDF7D6FF82468B4600BF0098FDF7A9F950
:1031300006460022094BFDF724F904460D46FDF72B
:10314000C7FF064652465B46FDF7A3F88046224677
:103150002B46FDF7CFF9E8D3BDE8F88F00408F404C
:103160002DE9F14FFDF7B4FF82468B4600BF009872
:10317000FDF787F906460022094BFDF702F90446E0
:103180000D46FDF7A5FF064652465B46FDF781F862
:10319000804622462B46FDF7ADF9E8D3BDE8F88F0F
:1031A00080842E4110B54FF03332044B044903C9DB
:1031B000FCF7CEFF024A03C210BD000033331040BB
:1031C0004002002010B51548006840F48070134993
:1031D0000860124808300068114908400F4908315A
:1031E00008600E4800680F4908400C49086008460E
:1031F000006820F48020086008480830006820F447
:103200007D000649083108600020091D0860FFF7AD
:10321000FDFE4FF000600449086010BD0038024018
:103220000CC0FF88FEFFFEEE08ED00E002460648F7
:10323000016804E0914201D10120704749690029E9
:10324000F8D10020F9E700007002002010B5FFF768
:1032500025FA10BD0023036043600372C160026160
:103260004361704770B504460E460848056825B1AD
:103270002068301A286000202872656101202072C1
:1032800002480460006800F0ADF870BD70020020D4
:10329000F0B50C4600250022174E33683668716978
:1032A00031B90668361B066058610026466122E087
:1032B00025460E6832191BE0066896420AD2066857
:1032C000761B066019B10E680768F61B0E60586120
:1032D00041610FE00B46496939B915460668761B0E
:1032E000066058610026466104E015460E683244C7
:1032F000002BE1D100BFF0BD7002002070B50025A9
:103300000026FDF7EBFB3648006810B9FDF7F0FB2F
:1033100070BDFFF79BFF0546314800680068401C00
:10332000A8421AD22E48006800682E1A00202C49A4
:10333000096808602A48006844690BE02068B042C8
:1033400003D92068801B206006E02068361A002020
:1033500020606469002CF1D111E021480068006808
:10336000401EA84207D91E4800680068401B1C493F
:103370000968086003E00020194909680860002016
:103380001749096808720BE015480468006840692D
:103390001349086000206061E06808B1E068804778
:1033A0000F48006820B10E48006800680028EBD084
:1033B0000B48006868B10A480068007A01280BD001
:1033C00001200749096808720548006800F00AF8FA
:1033D00002E00020FFF70EFAFDF78AFB00BF97E737
:1033E0007002002010B504462068FFF703FA10BDF4
:1033F00070B504460D46204600F052F82560656021
:1034000070BD000070B5044600250026FDF766FB80
:103410001CB12046FFF70AFF10B1FDF769FB70BD34
:103420006068206000202072206830B9E06808B130
:10343000E0688047FDF75CFBF1E71848006820B9B9
:1034400020462168FFF70EFF23E014480068007A49
:1034500001280FD1FFF7FAFE054610480068006802
:10346000A84202D20D48006805680C480068006850
:10347000461B02E00948006806682068B04204D292
:1034800031462046FFF7EEFE03E031462046FFF7C7
:10349000FFFEFDF72DFB00BFC1E70000700200201A
:1034A0002DE9F04105464FF000080026FDF716FB18
:1034B000354807680468006800B11DB9FDF718FBBE
:1034C000BDE8F08130480068A84244D12E48006829
:1034D000007A01282AD1FFF7B9FE804628684045C6
:1034E00001D2D5F800802868A0EB080626480068BD
:1034F0004069B8B100202449096808722248006870
:10350000406921490860084600680068304409683D
:10351000086001201C49096808721B480068FFF711
:1035200061FF2CE000201849086028E01648006878
:10353000406960B12E68144800684069124908600B
:1035400008460068006830440968086017E00020F9
:103550000D49086013E02E680EE0AC420AD16069A4
:1035600028B164697C6120683044206001E0002457
:103570007C6103E027466469002CEED100BFFDF7B3
:10358000B7FA00BF9CE700007002002070B540F25F
:103590002531464800F0E4F9A0B10121434800F08C
:1035A000D2F960B9414800F091FA044640480068F9
:1035B00040B1E1B23E4802680120904702E03B483A
:1035C00000F084FA40F22771384800F0C9F960B180
:1035D0003748006820B13648002102680846904705
:1035E00040F22771314800F093F940F225512F48FD
:1035F00000F0B6F9C8B101212C4800F0A4F960B977
:103600002A4800F063FA04462948006840B1E1B254
:10361000274802680120904702E0244800F056FA4B
:1036200040F22551214800F073F940F66A111F4815
:1036300000F096F980B11D4800F048FA04461C4895
:10364000006820B11A48002102680220904740F625
:103650006A11164800F05CF92821144800F080F93E
:1036600078B1124800F032FA04461148006820B1DF
:103670000F48002102680320904728210B4800F0E2
:1036800047F940F22441094800F06AF901280CD1B9
:1036900006480088C5B20548001D0088C5B2054827
:1036A000006810B103490868804770BD00380140C8
:1036B000D8030020E403002070B540F225314648CD
:1036C00000F04EF9A0B10121434800F03CF960B987
:1036D000414800F0FBF904464048406840B1E1B27F
:1036E0003E4842680120904702E03B4800F0EEF976
:1036F00040F22771384800F033F960B1374840682C
:1037000020B13648002142680846904740F22771B0
:10371000314800F0FDF840F225512F4800F020F923
:10372000C8B101212C4800F00EF960B92A4800F018
:10373000CDF904462948406840B1E1B227484268C3
:103740000120904702E0244800F0C0F940F22551E2
:10375000214800F0DDF840F66A111F4800F000F93A
:1037600080B11D4800F0B2F904461C48406820B101
:103770001A48002142680220904740F66A11164814
:1037800000F0C6F82821144800F0EAF878B1124891
:1037900000F09CF904461148406820B10F48002110
:1037A00042680320904728210B4800F0B1F840F20E
:1037B0002441094800F0D4F801280CD106480088BB
:1037C000C5B20548001D0088C5B20548406810B163
:1037D00003494868804770BD00440040D80300207A
:1037E000E403002070B540F22531464800F0B8F8F7
:1037F000A0B10121434800F0A6F860B9414800F0AB
:1038000065F904464048806840B1E1B23E488268AC
:103810000120904702E03B4800F058F940F2277140
:10382000384800F09DF860B13748806820B13648CC
:10383000002182680846904740F22771314800F025
:1038400067F840F225512F4800F08AF8C8B10121ED
:103850002C4800F078F860B92A4800F037F904469F
:103860002948806840B1E1B227488268012090472A
:1038700002E0244800F02AF940F22551214800F0E6
:1038800047F840F66A111F4800F06AF880B11D48F9
:1038900000F01CF904461C48806820B11A48002139
:1038A00082680220904740F66A11164800F030F80E
:1038B0002821144800F054F878B1124800F006F9B5
:1038C00004461148806820B10F4800218268032017
:1038D000904728210B4800F01BF840F2244109488A
:1038E00000F03EF801280CD106480088C5B2054812
:1038F000001D0088C5B20548806810B1034988687A
:10390000804770BD00480040D8030020E403002039
:1039100010B50022002340F66A14A14200D100BF76
:103920000A1201249440A3B2DC43048010BD21B1EB
:10393000828942F40052828104E082894DF6FF734D
:103940001A408281704702460020B1F5007F00D105
:1039500000BF13880B400BB1012000E0002070472E
:1039600070B50246002400230025002040F66A16A8
:10397000B14200D100BFC1F3421501F01F0301267F
:1039800006FA03F3012D02D19689334006E0022D99
:1039900002D1168A334001E0968A33400C12012688
:1039A00006FA04F41688344013B10CB1012000E08B
:1039B000002070BDF0B5034600240026002500203D
:1039C00040F66A17B94200D100BF1846C1F342144D
:1039D00001F01F06012707FA06F5012C01D10C3072
:1039E00004E0022C01D1103000E014301AB1076855
:1039F0002F43076002E00768AF430760F0BD000097
:103A00002DE9FF4705460E460024A14600BFA0460B
:103A1000B08900B100BF2C8A24F44054F0880443DC
:103A20002C82AC8941F20C608443B0883189084310
:103A3000718908430443AC81AC8A24F44074B08992
:103A40000443AC826846FEF7A3F91F48854202D1C1
:103A5000DDF80C9001E0DDF80890A88900F4004042
:103A600040B109EBC90000EB091031684900B0FB17
:103A7000F1F707E009EBC90000EB09103168890094
:103A8000B0FBF1F76420B7FBF0F0040120096421DA
:103A900001FB1078A88900F4004040B1322000EB0F
:103AA000C800B0FBF1F000F00700044308E032204A
:103AB00000EB08106421B0FBF1F000F00F000443AC
:103AC0002C81BDE8FF87000000380140014688884E
:103AD000C0F308007047C1F30802828070470000FD
:103AE0002DE9F04105460C4617460DB91C4E09E07C
:103AF000012D01D11B4E05E0022D01D11A4E01E02E
:103B000000BFFEE7012F14D104F0010030B1012203
:103B100040F227713046FFF74DFF1EE040F224408F
:103B20002040D0B1012240F224413046FFF742FF4D
:103B300013E004F0010030B1002240F2277130465A
:103B4000FFF738FF09E040F22440204028B100226E
:103B500040F224413046FFF72DFFBDE8F081000020
:103B60000038014000440040004800402DE9FF4F6C
:103B700089B006460F469846DDE9175ADDF8589099
:103B80007EB9DFF8D0B10724092004900A20039001
:103B90000B2002900C20019001218803FEF7D8F839
:103BA00024E0012E0FD1DFF8B0B1072402200490E9
:103BB0000320039000200290012001900121400485
:103BC000FEF7B6F812E0022E0ED1DFF890B107240E
:103BD0001A2004901B2003900420029001900121E0
:103BE0000004FEF7A5F801E000BFFEE70123002274
:103BF000022100940498FDF7E3FA01230022022138
:103C000000940398FDF7DCFA1FB90820ADF81E00F8
:103C10000AE0012F03D10420ADF81E0004E0022FBA
:103C200002D10C20ADF81E000B980590B8F1000FE2
:103C30000ED16DB10020ADF81800012D03D1A802FE
:103C4000ADF81C0023E04FF4C060ADF81C001EE08E
:103C5000B8F1010F06D12DB90020ADF81800ADF86C
:103C60001C0014E0B8F1010F0FD175B14FF4805072
:103C7000ADF81800012D03D18010ADF81C0006E04E
:103C80004FF4C060ADF81C0001E000BFFEE7B9F1E1
:103C9000000F03D10020ADF81A0016E0B9F1010FB2
:103CA00004D14FF48050ADF81A000EE0B9F1020FC4
:103CB00004D14FF40050ADF81A0006E0B9F1030F3B
:103CC00003D14FF44050ADF81A00BAF1000F03D100
:103CD0000020ADF8200032E0BAF1010F0BD1012332
:103CE0000022022100940198FDF76AFA4FF48070D7
:103CF000ADF8200023E0BAF1020F0BD1012300221E
:103D0000022100940298FDF75BFA4FF40070ADF8C1
:103D1000200014E0BAF1030F11D101230022022187
:103D200000940198FDF74CFA01230022022100942F
:103D30000298FDF745FA4FF44070ADF8200005A950
:103D40005846FFF75DFE01215846FFF7F0FD0DB024
:103D5000BDE8F08F003801400044004000480040BA
:103D60002DE9F04104460E4617460CB90D4D09E009
:103D7000012C01D10C4D05E0022C01D10B4D01E0CD
:103D800000BFFEE7F1B22846FFF7A5FE012F06D1DE
:103D900000BF80212846FFF7D6FD0028F9D0BDE8F6
:103DA000F08100000038014000440040004800401D
:103DB0002DE9F04107460D461646002406E0295D30
:103DC00001223846FFF7CCFF601C84B2B442F6DB18
:103DD000BDE8F08170B505460C4645B90F48046052
:103DE000012240F224410020FFF77AFE14E0012D69
:103DF00008D1012240F224411046FFF771FE074826
:103E0000446009E0022D07D1012240F22441022042
:103E1000FFF766FE0148846070BD0000E4030020E7
:103E20002DE9F84304460D4690469946089F34B95B
:103E3000244E25208DF800002348076013E0012C54
:103E400006D1224E26208DF800001F4847600AE068
:103E5000022C06D11E4E27208DF800001A488760DC
:103E600001E000BFFEE700213046FFF760FD05F0EE
:103E7000020028B1012240F225513046FFF79AFD99
:103E800005F0040028B1012240F66A113046FFF720
:103E900091FD05F0080020B1012228213046FFF7EE
:103EA00089FD8DF801808DF8029001208DF80300C6
:103EB0006846FDF745FD01213046FFF738FDBDE8B6
:103EC000F883000000380140D8030020004400407F
:103ED0000048004000BFFEE700B502460B4618460A
:103EE00000F012F802F8010B184600F00AF802F888
:103EF000010B104600BD0246CBB2104663F31F20F3
:103F000070470146080A70470146C8B2704710B5AD
:103F1000044661782078FFF7EEFF10BD014A0249A0
:103F200000F013B8054100087C02002002E008C838
:103F3000121F08C1002AFAD170477047002001E023
:103F400001C1121F002AFBD170472DE9F04116462E
:103F50000F460446002503E03946B047641C6D1C3B
:103F600020780028F8D12846BDE8F081704700008D
:103F700000B589B001210846FDF7CAFE4FF4805014
:103F8000019003208DF8080001A92448FDF70FF8DF
:103F90000120FDF7A7FF00BF2120FDF779FF0028D2
:103FA000FAD001214802FDF7D3FE1D48FCF708FCBA
:103FB00000211B48FCF7EDFB03A8FCF70BFD0020DC
:103FC00003908DF8100001208DF81100002005905D
:103FD000079001208DF8200003A91148FCF716FC7A
:103FE0000623012212210E48FCF743FC10210C4845
:103FF000FCF7F6FB01224FF440310948FCF730FC96
:1040000001210748FCF7D0FB00BF40210448FCF722
:10401000F3FB0028F9D009B000BD00000004024005
:10402000002401400148008870470000040000207F
:1040300010B50024002011490880FFF799FF1048AF
:10404000FCF7C3FC04240FE000BF02210C48FCF77E
:10405000D3FB0028F9D00A48FCF7CAFB07490988B6
:10406000084406490880641E002CEDDC03480088E3
:10407000801002490880032010BD000004000020C9
:104080000024014010B5FDF741FB4720FDF70EFB72
:10409000FDF77CFB0120FDF7B5FA04464FF6FF70F3
:1040A00000EA04240020FDF7ADFA204484B2FDF7B5
:1040B0004DFB204610BD000070B5064600250020CF
:1040C0000F49087000BF6420FFF728F8FDF71EFBBA
:1040D0004620FDF7EBFA6D1CFDF758FB04460A2D50
:1040E00003DB01200649087001E0002CEBD100BF82
:1040F0003046FDF7DBFAFDF749FBFDF727FB70BD06
:104100008001002070B504460E46FCF7E7FCE1B2E2
:104110000948FCF72CFF054655B90848007838B91E
:10412000012211460020FFF7DBFC01200349087043
:10413000FCF7DEFC204670BDF00C00206C02002075
:104140007047000010B5FDF727FAFDF789F8012048
:104150000149087010BD0000BC0000200148008823
:1041600070470000C0000020014800887047000030
:10417000BE0000202DE9F04100272948007830B921
:104180004FF69270274908800320BDE8F081FDF7C3
:10419000BDFA8020FDF78AFAFDF7F8FA0446012CF3
:1041A00005D14FF692701F4908800320EDE7E52006
:1041B000FDF77CFAFDF7EAFA044600BF6420FEF73B
:1041C000ADFFFDF7A3FA8120FDF770FA781C87B2E6
:1041D000FDF7DCFA04460A2F00D101E0002CEDD1F6
:1041E00000BF0120FDF70EFA05460120FDF70AFA8F
:1041F00006460020FDF706FAFDF7A8FA06F0FC00D7
:1042000040EA052808EB4801C1EBC810C11700EBD4
:1042100011410914891F034A11800320B5E70000EA
:10422000BC000020C00000202DE9F04F87B04FF007
:104230000009CB463848007838B94FF692703749B4
:104240000880032007B0BDE8F08FFDF75FFA8020FB
:10425000FDF72CFAFDF79AFA0446012C05D14FF62A
:1042600092702E4908800320ECE7E320FDF71EFA48
:10427000FDF78CFA044600BF6420FEF74FFFFDF700
:1042800045FA8120FDF712FA09F101001FFA80F9C1
:10429000FDF77CFA0446B9F10A0F00D101E0002CC9
:1042A000EAD100BF0120FDF7ADF905460120FDF779
:1042B000A9F906460020FDF7A5F9FDF747FA06F033
:1042C000FC0040EA052A5046FCF7DBF8144A154B7F
:1042D000CDE90001FBF7E3FF0022134BCDE902011A
:1042E000FCF74FF8114A124BCDE90401FBF7D1FF5F
:1042F0000746FCF72FF983465846FCF7E8F80746CF
:1043000000220C4BFBF7CBFFCDE90401FCF7C6F80C
:1043100002490880032095E7BC000020BE00002071
:10432000D7A3703D0AF765400000F040CDCCCCCC5F
:10433000CC6C47400000244010B5FCF721FFC4B20C
:1043400014B90020024908700148007810BD00002F
:104350006D02002010B54FF400710648FCF797FE7F
:104360004FF4FA70FCF75DFC4FF400710148FCF764
:104370008CFE10BD000402401CB501210220FDF797
:10438000C7FC4FF40070009001208DF8040000205D
:104390008DF806008DF8070003208DF805006946AA
:1043A0000448FCF704FE4FF400710248FCF76FFE6E
:1043B0001CBD00000004024030B50246481E155CDA
:1043C000881E105C05EB002084B20023002002E070
:1043D000155C2B44401CCD1E8542F9DCA34201D163
:1043E000012030BD0020FCE7D2B000201190FCF786
:1043F0008BFBFEF713FCFEF775FBFFF7BDFF1FA25B
:1044000022492348FEF726FF47F230512048FEF7A5
:10441000EFFF1F48FEF7F6FFFFF79CFF2CE0FFF7CA
:104420008BFF40B3FCF7ACFE0546092D02DAFCF722
:10443000D3FB21E0092112A8FCF792FEFCF7CCFB8C
:1044400011AB0EAA092112A8FEF7E4FA0446012CCA
:1044500010D111A800900F48008882B201AB0E491C
:104460000020FEF74BFBBDF8441001A8FEF788FDC5
:10447000FFF770FF00BF00BFD1E7000073656E73E8
:104480006F7220757064617461000000ED1900089E
:1044900080030020040200208002002030B5024684
:1044A0004FF6FF70002313E015786840521C00247B
:1044B0000AE000F0010525B140104AF2010568400C
:1044C00000E04010651CECB2082CF2DB5D1CEBB286
:1044D0008B42E9DB30BD704710B5FCF703FFFEF7F8
:1044E00053FB01200149087010BD0000FC010020B1
:1044F0000148008870470000000200200148008841
:1045000070470000FE0100202DE9F0414FF0000847
:104510002D48007830B94FF692702C49088003205E
:10452000BDE8F081FCF7A6FF8020FCF76FFFFCF7E9
:10453000E9FF0446012C05D14FF69270234908800B
:104540000320EDE7E520FCF761FFFCF7DBFF044605
:1045500000BF6420FEF7E2FDFCF78CFF8120FCF732
:1045600055FF08F101001FFA80F8FCF7CBFF044665
:10457000B8F10A0F00D101E0002CEAD100BF012000
:10458000FCF7EAFE06460120FCF7E6FE074600209F
:10459000FCF7E2FEFCF792FF07F0FC0040EA06257C
:1045A0002DB94FF69070094908800320B8E705EB54
:1045B0004501C1EBC510C11700EB11410914891F5A
:1045C000024A11800320ABE7FC010020000200201A
:1045D0002DE9F04F87B04FF0000AD3463C480078F1
:1045E00038B94FF692703B490880032007B0BDE808
:1045F000F08FFCF73FFF8020FCF708FFFCF782FFFD
:104600000446012C05D14FF69270324908800320F0
:10461000ECE7E320FCF7FAFEFCF774FF044600BF6A
:104620006420FEF77BFDFCF725FF8120FCF7EEFE02
:104630000AF101001FFA80FAFCF764FF0446BAF1A0
:104640000A0F00D101E0002CEAD100BF0120FCF7E5
:1046500083FE06460120FCF77FFE81460020FCF722
:104660007BFEFCF72BFF09F0FC0040EA06252DB984
:104670004FF69070174908800320B7E72846FBF7EC
:1046800000FF154A154BCDE90001FBF708FE00229B
:10469000134BCDE90201FBF774FE124A124BCDE930
:1046A0000401FBF7F6FD0746FBF754FF8346584627
:1046B000FBF70DFF074600220C4BFBF7F0FDCDE9A1
:1046C0000401FBF7EBFE0349088003208EE700009E
:1046D000FC010020FE010020D7A3703D0AF76540D1
:1046E0000000F040CDCCCCCCCC6C47400000244046
:1046F0004FF0E020006920F004004FF0E021086155
:10470000034848610846006940F0030008617047AB
:104710004031F7001F1C1F1E1F1E1F1F1E1F1E1FC4
:104720001F1D1F1E1F1E1F1F1E1F1E1F000000001B
:104730001F0000003B0000005A000000780000004D
:1047400097000000B5000000D4000000F300000056
:1047500011010000300100004E0100007C470008FC
:1047600000000020800200003C0700089C48000870
:1047700080020020281000003C3F000881D0086221
:104780006174746572790510302E3176120512034A
:1047900013713F1B086D041325401B0831040813D7
:1047A000146875743231645F74656D70657261741C
:1047B0007572653C120212041345411B0841041A2C
:1047C00069047B29423C480868756D696469748096
:1047D00009123C1A037A693C1A5D041A7504C11463
:1047E000424DE42C01017407111E0173424DE20792
:1047F0001D71424DE1153907115B0170C021080E92
:104800001950414E54454E475F706D325F35EC1A7A
:10481000010213591A1B0849041A8D041A9904F24B
:1048200001800D425F4C55585F53454E534F52091E
:10483000124C1204120613F1091B08EF0413050AA7
:104840001B08110481480A73746832305F74656D07
:10485000A30917441A024613D9441B08D7041AFDAA
:104860000413D1454A083C0D1C68756D693C1A0358
:10487000FA693C1AF1041A093C011159DDBA0274B3
:104880000126380A030406080C10182030482C02B0
:0C489000030404051F06070809000000CF
:04000005080000F5FA
:00000001FF
