:020000040800F2
:100000004013002009010008B51900082513000855
:10001000B1190008E10B00089D4200080000000033
:10002000000000000000000000000000E92A0008B5
:10003000ED0C0008000000003D1D0008FD33000825
:100040002301000823010008230100082301000800
:100050002301000823010008FD0C0008E50D00083D
:100060000D0E0008350E00085D0E00082301000883
:1000700023010008230100082301000823010008D0
:1000800023010008230100082301000823010008C0
:10009000230100082301000823010008850E000841
:1000A00023010008230100082301000823010008A0
:1000B0002301000823010008230100082301000890
:1000C0002301000823010008230100082301000880
:1000D000230100084138000841390008413A00086E
:1000E000250D0008C920000823010008230100088D
:1000F00023010008DFF80CD000F024FB0048004783
:10010000F54900084013002006488047064800478C
:10011000FEE7FEE7FEE7FEE7FEE7FEE7FEE7FEE7B7
:10012000FEE7FEE71D340008F500000840EA010381
:100130009B0703D009E008C9121F08C0042AFAD29D
:1001400003E011F8013B00F8013B521EF9D2704761
:100150002DE9FE4F804681EA0300C00F0C46009057
:1001600021F0004123F00045B8EB0200A94105D27F
:100170004046214690461C460B46024623F000406E
:10018000104347D0270DC7F30A00C3F30A5102906A
:10019000401A019040286BDAC3F3130040F4801B2F
:1001A0000098924620B10023D2EB030A63EB0B0BBD
:1001B00001985946C0F14002504600F0FDF906464C
:1001C0000D4650465946019A00F015FA10EB08000A
:1001D0006141002487EA115284EAE7731A4340D050
:1001E000009A62B3019A012A4FEA075215DC001BFC
:1001F00061EB02014FF0004202EA0752CDE90042F2
:10020000001C41F5801132462B4600F04CFA03B039
:10021000BDE8F08F40462146F9E7001B61EB020183
:10022000001C41F5801300185B412018A2F500174F
:1002300047EB030140EAD570B6196D4111E06D0836
:100240004FEA360645EAC0754FEA0752001B61EBDC
:100250000201001C41F5801149084FEA30000019E5
:10026000514132462B4603B0BDE8F04F00F00CBAC6
:100270000098012240000023D0EB020263EBE07300
:10028000009821464FEAE074B8EB000061EB0401EE
:10029000E9E783F000435BE781F0004158E72DE98F
:1002A000FE4F81EA030404F0004421F00041009471
:1002B0004FF0000B23F0004350EA01045ED052EAF5
:1002C00003045BD0C3F30A54C1F30A552C44A4F2CF
:1002D000F3340194A0FB0254C1F3130141F48011E3
:1002E000C3F3130343F4801301FB024400FB034EEA
:1002F000840A970A44EA815447EA8357A4FB0768B3
:1003000002958D0A05FB07854FEA932C04FB0C54DC
:100310002705029D4FEA065847EA1637B5EB080550
:100320006EEB070C870E920E47EA811742EA8312A2
:10033000A7FB0201B6EB0B0164EB00042B0D43EAB3
:100340000C335E1844EB1C50DA465146E7FB0201C1
:10035000C5F313044FEA0B3343EA14534FEA043254
:10036000019C43EA0603A4F10C040294009CCDE92D
:1003700000B400F098F903B0BDE8F08F002001460A
:10038000F9E72DE9F04D81EA030404F0004B21F078
:10039000004514464FF0000A23F0004150EA0502E0
:1003A00020D054EA01021DD0C5F30A570246C5F316
:1003B0001303C1F31300C1F30A5640F4801543F44C
:1003C0008013A7EB0608101BD64608F2FD3873EB26
:1003D000050002D308F1010801E092185B41B8F171
:1003E000000F03DA00200146BDE8F08D00204FF435
:1003F0008011064684460EE0171B73EB050705D3F4
:10040000121B63EB050306434CEA010C49084FEA53
:10041000300092185B4150EA0107EDD152EA030027
:1004200012D082EA040083EA0501084305D0101BBC
:10043000AB4106D20122002306E000224FF0004328
:1004400002E06FF0010253101AEB06004CEB08516A
:1004500010EB0A0041EB0B01BDE8F04D00F014B9C0
:100460000EB5C10F80EAE0700844CA07002140F2CF
:1004700033438DE80E000A460B4600F014F903B032
:1004800000BD0EB540F2334102910021CDE90011CB
:100490000A460B4600F007F903B000BDC1F30A524B
:1004A00010B5C1F3130140F2FF3341F480119A42B9
:1004B00001DA002010BD40F233439A42A2F23342E7
:1004C00003DC524200F087F810BD904010BD00F0F0
:1004D000004230F000400AD0C10D01F56071C0F358
:1004E000160042EA0151C20840071143704700203C
:1004F0000146704730B5041E71F1000404DB4FF073
:100500000044404264EB0101141E73F1000405DB5A
:100510001C464FF00043524263EB04038B4208BF7A
:10052000824230BD30B5041E71F1000404DB4FF08F
:100530000044404264EB0101141E73F1000405DB2A
:100540001C464FF00043524263EB0403994208BF3C
:10055000904230BD01F0004330B421F0004150EA38
:10056000010206D00A0DA2F56072C1F31301002A40
:1005700002DC30BC00207047440F44EAC104C100D3
:10058000E01830BC00EBC25000F047B830B50B4665
:10059000014600202022012409E021FA02F59D42B3
:1005A00005D303FA02F5491B04FA02F52844151E87
:1005B000A2F10102F1DC30BD202A04DB203A00FA6E
:1005C00002F1002070479140C2F1200320FA03F3AA
:1005D000194390407047202A04DB203A21FA02F0A8
:1005E0000021704721FA02F3D040C2F1200291406D
:1005F000084319467047202A06DBCB17203A41FAF8
:1006000002F043EAE07306E041FA02F3D040C2F19F
:10061000200291400843194670470029A8BF70473F
:10062000401C490008BF20F00100704710B4B0FA28
:1006300080FC00FA0CF050EA010404BF10BC7047C3
:1006400049B1CCF1200421FA04F411FA0CF118BFDD
:10065000012121430843A3EB0C01CB1D4FEA0061AC
:100660004FEA102042BF002010BC704700EBC3507F
:1006700010440029A4BF10BC7047401C490008BFAB
:1006800020F0010010BC704710B5141E73F1000477
:1006900008DA401C41F1000192185B411A4301D174
:1006A00020F0010010BD2DE9F04D92469B4611B19E
:1006B000B1FA81F202E0B0FA80F220329046FFF700
:1006C0007BFF04460F4640EA0A0041EA0B0153460D
:1006D0005A46084313D0114653EA010019D0C8F115
:1006E00040025046FFF777FF05460E4650465946F2
:1006F0004246FFF761FF084305D0012004E0204691
:100700003946BDE8F08D0020054346EAE0762C43EB
:1007100037430A986305E40AA0EB08000022FD0AAB
:1007200044EA47540A3002D500200146E9E70105B2
:1007300010196941DDE9084500196941BDE8F04D2E
:10074000A2E70000064C074D06E0E06840F0010318
:1007500094E8070098471034AC42F6D3FFF7CEFC7C
:100760002C4F00084C4F000870B58C1810F8015B36
:1007700015F0070301D110F8013B2A1106D110F83A
:10078000012B03E010F8016B01F8016B5B1EF9D13E
:100790002B0705D40023521E0DD401F8013BFAE7C4
:1007A00010F8013BCB1A921C03E013F8015B01F82F
:1007B000015B521EF9D5A142D8D3002070BD21B1F2
:1007C000826842F00402826003E0826822F0040240
:1007D0008260704721B1826842F00102826003E0CA
:1007E000826822F0010282607047000010B5044662
:1007F0000548844207D10121401501F023FB002167
:10080000601501F01FFB10BD002401400A460021C5
:10081000816821F0F0011143816070470146886DC5
:1008200080B270470246002013680B400BB10120D4
:1008300000E000207047000030B502460020002391
:100840005068104C20400D790C6844EA0524204380
:10085000506090680C4C2040D1E903542C438D68C3
:100860002C434D7944EA450420439060106B20F0FE
:10087000F8700C7D641EE4B2234340EA0350106319
:1008800030BD0000FFFEFFFCFDF7FFC01AB143685A
:100890000B43436002E043688B4343607047F0B50D
:1008A00004460D46002000211D2D11DDE06DA5F14F
:1008B0001E0606EB4607072606FA07F18843A5F150
:1008C0001E0606EB460603FA06F10843E06534E02F
:1008D000132D11DDE068A5F1140606EB4607072687
:1008E00006FA07F18843A5F1140606EB460603FA5B
:1008F00006F10843E06020E0092D11DD2069A5F133
:100900000A0606EB4607072606FA07F18843A5F113
:100910000A0606EB460603FA06F1084320610CE0DE
:10092000606905EB4507072606FA07F1884305EBE2
:10093000450603FA06F108436061072A0FDA206CC6
:10094000561E06EB86071F2606FA07F18843561E39
:1009500006EB860605FA06F1084320644AE00D2AF4
:100960000FDAE06BD61F06EB86071F2606FA07F1A3
:100970008843D61F06EB860605FA06F10843E063B6
:1009800038E0132A11DAA06BA2F10D0606EB8607F8
:100990001F2606FA07F18843A2F10D0606EB86062C
:1009A00005FA06F10843A06324E0192A11DA606B06
:1009B000A2F1130606EB86071F2606FA07F1884305
:1009C000A2F1130606EB860605FA06F108436063FA
:1009D00010E0206BA2F1190606EB86071F2606FA27
:1009E00007F18843A2F1190606EB860605FA06F11F
:1009F00008432063F0BD816841F080418160704709
:100A0000002101600171417181604FF04071C1604E
:100A100000210161012101757047704710B500F098
:100A2000ABFC01200149087010BD00007C010020D2
:100A300001480088704700007E0100202DE9F04148
:100A40001548007830B94FF6927014490880032099
:100A5000BDE8F081012003F0CEFD072003F0CBFDBF
:100A6000112003F0C8FDB42000F041F903F0AAFD05
:100A70008046FFF706FD06464FF03332084BFFF77E
:100A800080FC0446FFF70AFD044908804FF4FA7021
:100A900000F02DF90320DBE77C0100207E0100201F
:100AA0003333F33F08B500F0C1F8012003460022BC
:100AB000114600902E2000F0D1FB012003460022B9
:100AC000114600902F2000F0C9FB012003460022B0
:100AD00011460090502000F0C1FB01200346002287
:100AE00011460090512000F0B9FB00200149087028
:100AF00008BD0000E901002072B603480078401CE0
:100B00000149087070470000EB010020044800789C
:100B1000401E034908700846007800B962B6704765
:100B2000EB01002010B50E48007880B94FF44070FA
:100B300000F07EFF00F016F804F0A8F800F080F84E
:100B400002F05AFB01F03CFE01200549087000F05C
:100B5000A7FE00F059F84FF47A7000F0C8F810BD05
:100B6000E901002008B51D480078B0BB012003460C
:100B7000002201460090042000F070FB0120034693
:100B8000002201460090042000F068FB012003468B
:100B9000002201460090042000F060FB0120034683
:100BA0000022014600901A2000F058FB0120034665
:100BB0000022014600901B2000F050FB0121084656
:100BC00000F084F80121022000F080F801210420C7
:100BD00000F07CF801200149087008BDEA010020FE
:100BE00000BFFEE70146002003E001F001021044CF
:100BF00049100029F9D1704710B5024800F0F8F902
:100C000010BD0000980C002010B54FF4106204498C
:100C1000044800F0F1F90221034800F0D1FC10BDB6
:100C20008C0300208C0C0020EC01002010B500216A
:100C3000084603F0E1F8002003F0B6FA10BD00000A
:100C40000EB500200090019001234FF4E132022103
:100C5000029003F075F90B4800231A460221009018
:100C6000184603F0C1FA08480078012809D101228A
:100C70001146002003F034F900220121034800F05E
:100C80006FFE0EBDAD3D0008F4010020EC01002018
:100C90002DE9FC47824616461F4600F07FFA0446BF
:100CA0000D46DAE90083424620462946FFF7F1FA6D
:100CB00032463B46CDE90001FFF734FC04D8CAE9CF
:100CC00000450120BDE8FC870020FBE729B1064A6A
:100CD00052680243044B5A6004E0034A526882435C
:100CE000014B5A6070470000002004E0704710B5C7
:100CF0000446204601F030FD10BD000010B500F0A4
:100D0000F1FD012000F010F940B1012000F006F9DA
:100D10000348006810B102490868804710BD000010
:100D20004003002010B500F0DDFD4FF4806000F0BE
:100D3000FBF848B14FF4806000F0F0F82848806A72
:100D400010B12749886A80474FF4006000F0ECF842
:100D500048B14FF4006000F0E1F82148C06A10B1DA
:100D60001F49C86A80474FF4805000F0DDF848B151
:100D70004FF4805000F0D2F81948006B10B11849B8
:100D8000086B80474FF4005000F0CEF848B14FF4A4
:100D9000005000F0C3F81248406B10B11049486B86
:100DA00080474FF4804000F0BFF848B14FF48040D6
:100DB00000F0B4F80A48806B10B10949886B80478D
:100DC0004FF4004000F0B0F848B14FF4004000F09C
:100DD000A5F80348C06B10B10149C86B804710BD2E
:100DE0004003002010B500F07DFD022000F09CF8CB
:100DF00040B1022000F092F80348406810B1024967
:100E00004868804710BD00004003002010B500F086
:100E100069FD042000F088F840B1042000F07EF85D
:100E20000348806810B102498868804710BD0000FF
:100E30004003002010B500F055FD082000F074F8C4
:100E400040B1082000F06AF80348C06810B10249B8
:100E5000C868804710BD00004003002010B500F0B6
:100E600041FD102000F060F840B1102000F056F86D
:100E70000348006910B102490869804710BD0000AD
:100E80004003002010B500F02DFD202000F04CF8AC
:100E900040B1202000F042F81F48406910B11E49BF
:100EA00048698047402000F03FF840B1402000F002
:100EB00035F81948806910B1174988698047802042
:100EC00000F032F840B1802000F028F81248C069E4
:100ED00010B11149C86980474FF4807000F024F8C0
:100EE00048B14FF4807000F019F80B48006A10B157
:100EF0000949086A80474FF4007000F015F848B1BE
:100F00004FF4007000F00AF80348406A10B102493B
:100F1000486A804710BD0000400300200149086076
:100F2000704700001404014001460020034A126883
:100F30000A400AB1012000E000207047140401407B
:100F4000002123498279002A3AD00A4612680368B0
:100F50009A430B461A600A1D126803689A430B1DD8
:100F60001A60027911440A6803681A430A60184A31
:100F70000832126803689A43154B08331A601A1D29
:100F8000126803689A43124B0C331A604279102A94
:100F90000ED11A1F126803681A430D4B08331A60EA
:100FA0001A1D126803681A43094B0C331A600DE0CE
:100FB0000749427911440A6803681A430A6005E048
:100FC000027911440A6803689A430A607047000076
:100FD0000004014010B50146CA880B891A448B8869
:100FE000D21A0B8992FBF3F403FB142290B210BDCA
:100FF00000218180C1807047016000238380C3800D
:101000000281704710B502469088D388984201D17A
:10101000012000E0002068B993881068C05C087067
:101020009088401C138990FBF3F403FB140090801C
:10103000002010BD4FF0FF30FBE710B50246D0880E
:10104000401C138990FBF3F403FB1400938898422F
:1010500001D1012000E0002060B9D3881068C1549C
:10106000D088401C138990FBF3F403FB1400D0805C
:10107000002010BD4FF0FF30FBE7F0B502460B46F5
:10108000002100240025002000BF35E0012606FADB
:1010900001F41E6806EA0405A5422CD110684F0031
:1010A0000326BE40B0431E794F00BE40304310605F
:1010B0001E79012E02D01E79022E12D190684F00A7
:1010C0000326BE40B0435E794F00BE40304390607F
:1010D000908801268E40B0439E798E40B6B2304350
:1010E0009080D0684F000326BE40B043DE794F00A9
:1010F000BE403043D060491C1029C7D3F0BDF0B5C5
:10110000002300244D07ED0E02FA05F3CE1000F186
:10111000200555F826504E07F70E0F26BE40B54362
:10112000CF1000F1200646F82750CE1000F1200520
:1011300055F8265045EA0304CE1000F1200545F885
:101140002640F0BD02460020138A0B400BB101205F
:1011500000E0002070474183704701837047000022
:101160000220094A1278012A0BD1084A116805E0C9
:101170000A79012A01D1012002E009680029F7D18A
:1011800000E0012070470000950100209801002038
:1011900001480078704700009C0100202DE9F047CD
:1011A0004FF0E0218869FFF76CF906460022184BE2
:1011B000FFF7E7F804460D464FF03332154B16495A
:1011C00003C9FEF7C5FF804622462B46FFF761F8AC
:1011D000124A03C2124811490CC803C9FFF759F853
:1011E0000446104A104BFFF79DF908D24FF03332F6
:1011F000084B0A4903C9FFF74CF8084A03C20749DC
:1012000003C9074A03C2054903C9BDE8F0870000C6
:1012100080844E4133331040C8010020B8010020C3
:10122000C00100201904560E2D32104070B505463D
:101230000E46002404E029190348FFF7E3FE641C6E
:10124000B442F8DB70BD0000980C002010B50248D5
:10125000FFF7C0FE10BD0000980C00202DE9FF5FD5
:1012600005460C4617469846DDF83890C5F3071A30
:1012700005F00F0B1F4800EB8A200190012000FAB7
:101280000BF080B20090012000FA0AF61A480068BC
:10129000304040B90121304600F094FD1648006806
:1012A000304315490860012C0CD1B9F1000F04D16D
:1012B000DDE90010FFF74FFF0BE0DDE90010FFF75D
:1012C0004CFF06E0022C04D14A4659460198FFF72C
:1012D00016FF009802908DF80C4003208DF80D0049
:1012E0008DF80E708DF80F8002A90198FFF7C5FEEA
:1012F000BDE8FF9F000002409001002010B50024CF
:1013000000F0F4F8802000F0C1F800F02FF9044656
:10131000FE2000F0BBF800F029F9044600F006F9C1
:10132000204610BD02A002F0C5FF00BFFEE700008E
:1013300020486172646661756C7421200D0A00009A
:1013400010B540210B48FFF706FF00F089F8802117
:101350000848FFF700FF142002F02EF8402105484E
:10136000FFF7FBFE022002F027F840210148FFF7BB
:10137000F2FE10BD000402401CB50121022000F065
:1013800021FDC020009001208DF8040000208DF880
:1013900006008DF8070003208DF805006946024815
:1013A000FFF76BFE1CBD00000004024010B5402199
:1013B0000B48FFF7D0FE00F053F880210848FFF7F4
:1013C000CCFE052001F0F8FF40210548FFF7C5FEDF
:1013D000052001F0F1FF40210148FFF7BCFE10BDE0
:1013E0000004024070B50546002400F027F80026EE
:1013F00018E040211048FFF7AEFE052001F0DCFFA9
:1014000040210D48FFF7A9FE6006040E80210A481E
:10141000FFF798FE08B1601CC4B2052001F0CCFFB4
:10142000701CC6B2082EE4DB15B9FFF7BFFF01E060
:10143000FFF786FF204670BD000402401CB58020E7
:10144000009000208DF804008DF8070003208DF82F
:10145000050069460148FFF710FE1CBD000402406C
:101460001CB58020009001208DF804008DF8060046
:1014700000208DF8070003208DF80500694602481A
:10148000FFF7FBFD1CBD00000004024070B50446E0
:10149000FFF7E6FF40211448FFF75DFE00251FE03F
:1014A000E00920B180211048FFF757FE03E08021BA
:1014B0000D48FFF750FE6006040E052001F07CFF8A
:1014C00040210948FFF749FE052001F075FF402142
:1014D0000548FFF740FE052001F06EFF681CC5B20D
:1014E000082DDDDB70BD00000004024010B5FFF7E1
:1014F000B7FF80210C48FFF730FE40210A48FFF774
:101500002CFE042001F058FF80210748FFF723FE3E
:10151000042001F051FF40210348FFF71CFE042086
:1015200001F04AFF10BD00000004024010B5FFF7B3
:1015300097FF40210C48FFF70EFE80210A48FFF775
:101540000AFE042001F038FF40210748FFF705FE9E
:10155000012001F031FF80210348FFF7FEFD042048
:1015600001F02AFF10BD00000004024010B5002465
:10157000FFF764FF80211148FFF7EFFD012001F024
:101580001BFF40210D48FFF7E8FD012001F014FF8B
:1015900008E0601C84B2B4F5FA7F03DDFFF7C6FFF4
:1015A000012010BD80210548FFF7CCFD0028F0D1B7
:1015B00040210248FFF7CFFD0020F2E7000402407F
:1015C00070B504460E46FFF797FA26710D48056878
:1015D00005E0A54202D1FFF799FA70BD2D68002DF4
:1015E000F7D10848006820B9002020600548046051
:1015F00004E004480068206002480460FFF786FAAF
:1016000000BFEAE7980100202DE9F0419AB00746B3
:101610000C46154600262078FE2858D1681E205C0E
:10162000EF2854D16278A178022A02D0032A4CD143
:1016300017E0072D09D104208DF80000E0788DF81F
:1016400004000120ADF802000AE0082D08D10520B1
:101650008DF8000020798DF804000120ADF802001B
:1016600033E0E078022809D102238DF80030237995
:101670008DF804300123ADF8023025E0012806D1B1
:1016800001238DF800300023ADF802301CE0A8B92A
:10169000042608E014F80680331F0DF1040C0CF842
:1016A0000380731CDEB2CB1CB342F3DC4B1E9BB237
:1016B000ADF8023003238DF8003005E023798DF872
:1016C00004300123ADF8023000BF00BF04E0002069
:1016D000ADF802008DF80000682269463846FEF732
:1016E00025FD1AB0BDE8F081F0B59BB007460D4668
:1016F00000260024FE222146641C02A84254022235
:101700002146641C425401222146641C4254214655
:10171000641C45540321401C02F0FAFF0646214692
:10172000641C02A84654320A2146641C4254EF222B
:101730002146641C4254ADF80640682201A938468F
:10174000FEF7F4FC1BB0F0BD2DE9F04F9BB08246D4
:101750000F4615469846DDF890B00026B1460024A5
:10176000FE222146641C02A8425401222146641C28
:101770004254E81CC2B22146641C02A84254002212
:101780002146641C42542146641C00F80180214615
:10179000641C00F801B000BF07E0BA5D2046611C80
:1017A0008CB202A90A54701CC6B2AE42F5DB681DA9
:1017B000C1B20DF1090002F0ABFF81462046611C69
:1017C0008CB202A901F800904FEA19222046611C50
:1017D0008CB202A90A54EF222046611C8CB202A9E5
:1017E0000A54ADF80640682201A95046FEF79EFC57
:1017F0001BB0BDE8F08F000010B586B00446012193
:10180000084600F0DFFA2220049001208DF8140031
:1018100000208DF816008DF8170003208DF81500B4
:1018200004A91248FFF729FC02211048FFF795FC94
:1018300020210E48FFF791FC0D48046003F096F854
:1018400000200090019001234FF4165202210290D3
:10185000084602F075FB074800231A460221009053
:10186000084602F0C1FC06B010BD000000000240B6
:10187000FC0100209D30000810B5074800780128C1
:1018800009D1FFF739F90548006840F08050034955
:101890000860FFF73BF910BD9501002004ED00E062
:1018A00010B56FF001000F21002807DA0A07140EA7
:1018B000084A00F00F031B1FD45403E00A07130E5D
:1018C000054A135400BF0548007810B901200449A7
:1018D000087010BD18ED00E000E400E09501002064
:1018E0009C01002010B5FFF707F9012000F008FA6D
:1018F00010B1012000F0DAF917480078022825D14C
:10190000012000F051FB00BF312000F02BFB00282C
:10191000FAD0012000F05EFB00BF392000F022FB6E
:101920000028FAD0032000F089FB00BF00F034FB50
:101930000C28FBD1002000F0FBF9012000F0ECF9AD
:101940000021022000F07EF8FFF7ECF800200349A8
:101950000870FFF7DBF810BD9C0100209401002007
:101960002DE9F04104460F4615460E48007801283F
:1019700015D1FFF7C1F82771FFF7F2FB06460A48B9
:101980000078B04205D008480670012D01D101F061
:10199000E1FD002005490870FFF7B8F800BFBDE879
:1019A000F0810000950100209C010020940100209E
:1019B00000BFFEE77047000070B5002100230F2232
:1019C000C4781CB3174C246804F4E064C4F5E064E4
:1019D000C4F30721C1F10404E3B20A4144789C40F6
:1019E000E1B28478144021430C07210E0E4C057897
:1019F0006155047804F01F050124AC4005786D1191
:101A0000AD0005F1E025C5F8004109E0047804F0D7
:101A10001F050124AC40054D0678761145F8264097
:101A200070BD00000CED00E000E400E080E100E0AB
:101A300002490143024A1160704700000000FA05A4
:101A40000CED00E029B1064A12680243044B1A600B
:101A500004E0034A12688243014B1A607047000099
:101A600010ED00E010B5FFF751F86421174801F0C0
:101A70008FF917490860086804E0411E134A515C59
:101A80001154401E0028F8DA02201049087010484E
:101A90000068401C0E49086000240EE000BF0D489D
:101AA000007840B10C480078022804DB0748015D4B
:101AB0000AA002F0FFFB00BF641C0B2CEEDB02202F
:101AC0000B490870FFF718F810BD00001002002045
:101AD00080010020030200200402002053656E6490
:101AE000427566666572203D2025640A000000008C
:101AF00084010020052801DD0149086070470000CD
:101B0000F000002010B54FF69270044908800220C2
:101B100000F0F4FF6420FFF7EAF810BDEC000020AD
:101B20000148008870470000EC0000202DE9F047D4
:101B300086B04FF0000A59480078012806D00228E4
:101B40001ED0032872D0042819D13EE04FF69270BF
:101B500053490880FFF722FB524A03C2FFF74CF8B3
:101B600002204E490870012000F0C8FF6420FFF7F2
:101B7000BEF8052000F0C2FF6420FFF7B8F881E04E
:101B800049480068FEF76CFC04460D46FFF706FB6B
:101B9000804644480CC84046FEF77BFB064622467A
:101BA0002B46FEF7BFFC0FD86420FFF7A0F80320F8
:101BB00000F0A4FF6420FFF79AF8FFF7EFFA394A24
:101BC00003C20420354908705CE0FFF73FFB824602
:101BD000BAF1180F2BDB18216846FFF727FB02200C
:101BE00000F08CFF6420FFF782F81821684602F0AD
:101BF000E9FE58B19DF807109DF8060001EB0020A2
:101C00002749088003202549087006E04FF69170A7
:101C100023490880032021490870022000F06EFF4C
:101C20006420FFF764F8FEF7E7FF2BE026E01E488C
:101C30000068FEF715FC04460D46FFF7AFFA804634
:101C400018480CC84046FEF724FB064622462B46A1
:101C5000FEF768FC0ED84FF69270114908800320F9
:101C60000E490870022000F049FF6420FFF73FF89A
:101C7000FEF7C2FF03200949087003E0012007496D
:101C8000087000BF00BF05480078042803D1022077
:101C900006B0BDE8F08701480078F9E73001002080
:101CA000EC00002038010020F00000200349096802
:101CB00041EA8001014A1160704700000070004055
:101CC00010B502460020094B186820F003001043AD
:101CD0001860074B1B6843F00403054C236001297F
:101CE00001D130BF00E020BF10BD000000700040F7
:101CF00010ED00E0014988627047000000000E42CC
:101D000001460020034A52680A400AB1012000E05F
:101D100000207047007000400149086170470000D2
:101D200000000E42014908627047000000000E42A8
:101D3000014948627047000000000E4210B5FEF7EE
:101D4000DBFE194800780A2805DA17480078401C9D
:101D50001549087025E000201349087013480078E1
:101D600002281ED100BF1248007830B11148007817
:101D7000042802DB10A002F09DFA00BFFEF792FEDD
:101D80000020FFF7C9FF0120FFF7D2FF0020FFF777
:101D9000B1FF01210220FFF755FE01210846FFF7A0
:101DA0008FFFFEF7B3FE10BD940100209C010020C0
:101DB00003020020040200202073746F7021200DA4
:101DC0000A00000029B1064A12680243044B1A6057
:101DD00004E0034A12688243014B1A607047000016
:101DE0001C38024029B1064A12680243044B1A60AB
:101DF00004E0034A12688243014B1A6070470000F6
:101E00002438024029B1064A12680243044B1A6082
:101E100004E0034A12688243014B1A6070470000D5
:101E20001838024029B1064A12680243044B1A606E
:101E300004E0034A12688243014B1A6070470000B5
:101E40002038024029B1064A12680243044B1A6046
:101E500004E0034A12688243014B1A607047000095
:101E600014380240F0B5002100220023002600248F
:101E70000025374F3F6807F00C0131B1042912D01B
:101E8000082913D00C2934D113E0314F3F1F3F688C
:101E9000C7F342356F1C4FF0010C0CFA07FC4FEAF8
:101EA000CC37076033E02B4F076030E02A4F0760E4
:101EB0002DE0274F3F6807F47012254F3F6807F465
:101EC0004003264F07EB92473A78012707EB9353DD
:101ED0001F4F3F6807F480362EB91E4F5743B7FB9C
:101EE000F3F7076004E01C4F5743B7FBF3F70760B5
:101EF0000DE0174F3F1F3F68C7F342356F1C4FF08F
:101F0000010C0CFA07FC4FEACC37076000BF00BF9A
:101F10000F4F3F6807F0F0010909114F7C5C07681B
:101F2000E74047600A4F3F6807F4E061090A0C4F39
:101F30007C5C4768E7408760054F3F6807F4605165
:101F4000C90A074F7C5C4768E740C760F0BD0000E6
:101F5000083802400024F400001BB700D001002024
:101F6000D901002010B501460022002300204A11AB
:101F7000012A02D1074C236802E0064C343423685E
:101F800001F01F02012494401C400CB1012000E02C
:101F9000002010BD003802400248006800F00C002C
:101FA00070470000083802400021024A11701146B3
:101FB000087070470238024001490860704700000D
:101FC000000047420021024A117011460870704714
:101FD000353802400149086670470000000047425A
:101FE0000149086070470000D8064742002100F40C
:101FF0004032B2F5403F08D10C4A116821F0C0418F
:1020000000F0C0421143094A1160084A3432126894
:1020100022F44032054B34331A601A46126800F439
:1020200040331A43014B34331A6070470038024082
:102030000149086070470000DC0647420146002065
:10204000034A106820F00300084310607047000046
:102050000838024038B502460024009400230020CE
:10206000CA24184D2C6053242C6041B1154C1C3CE3
:1020700024681443134D1C3D2C6001201EE0114CBC
:102080001C3C246894430F4D1C3D2C6000BF0D4C3C
:10209000183C246804EA1223009C641C0094009CF1
:1020A000B4F5005F01D0002BF1D0064C183C246839
:1020B00004EA12240CB9002000E00120FF24014DA5
:1020C0002C6038BD2428004010B54FF4805000F03B
:1020D000A7F858B14FF4805000F032F84FF40030B8
:1020E000FEF71CFFFFF7FEFB01F034FA10BD0146BE
:1020F00000BF080900EB8000420001F00F0010440F
:10210000C0B270470146002204E0501CC2B2A1F1E7
:102110000A00C1B20A29F8DA100741EA10607047D4
:10212000C0F3100141F08001044A126802F08002FD
:1021300062EA0101014A1160704700000C2800406A
:10214000002101098AB242F08002044B1B6803F0AF
:10215000800363EA0202014B1A6070470C280040BA
:1021600001210170817041700021C1707047000031
:1021700008B50022009200200021104A126802F0E7
:102180004002CAB9421E0D4B1A6000BF0B4A1268CA
:1021900002F04001009A521C0092009AB2F5005FD2
:1021A00001D00029F2D0054A126802F040020AB1BB
:1021B000012002E0002000E0012008BD0C280040C2
:1021C0000348006820F08000014908607047000063
:1021D0000C28004070B506460C4600250E480068E5
:1021E0000E4900EA0105280CE070C5F30420607078
:1021F00005F03F00A070C5F3423020705EB9E07872
:10220000FFF775FFE0706078FFF771FF6070A078EE
:10221000FFF76DFFA07070BD042800403FFFFF0076
:1022200030B501460020002200230D4C246804F044
:1022300004020B4C383C24680C408D0C21FA05F547
:1022400002EAD53544EA0503054C343C246804EA27
:1022500011121BB194B20CB1012000E0002030BD7E
:102260004028004070B506460C4600250F4800681F
:102270000F4900EA0105C5F305402070C5F30620AB
:10228000607005F07F00A07005F48000000CE07025
:102290005EB92078FFF72BFF20706078FFF727FFEB
:1022A0006070A078FFF723FFA07070BD0028004089
:1022B0007F7F7F00CA22174B1A6053221A6091B1A8
:1022C000144A1C3A126820F004031A43114B1C3BB9
:1022D0001A60104A1C32126800F004031A430D4BB6
:1022E0001C331A6011E00B4A1C3A126820F00403F8
:1022F0009A43084B1C3B1A60064A1C32126800F0D5
:1023000004039A43034B1C331A60FF22014B1A60EB
:10231000704700002428004030B504460025CA203C
:102320001549086053200860FFF722FF00B91DE03F
:1023300011481C38006820F040000F491C39086023
:1023400008460068216808430B491C3908600A499F
:102350001439A068086008460068A18840EA014076
:10236000054914390860FFF72BFF0125FF200249BA
:102370000860284630BD0000242800402DE9F041C7
:1023800005460E461446002765B93648006800F039
:10239000400000B102E00020E07000BFA06800B97A
:1023A00019E018E02F48006800F0400020B12078C4
:1023B000FFF79DFE074602E00020E07000BFA06826
:1023C00020B9207BFFF793FE074604E0207BFFF750
:1023D0008EFE074600BF95B120780004617840EA80
:1023E0000120A1780843E17840EA0140217B40EADE
:1023F0000160A1680843616840EA01071BE020789A
:10240000FFF780FE4FEA00486078FFF77BFE48EA5E
:102410000028A078FFF776FE48EA0008E07848EA4E
:102420000048207BFFF76EFE48EA0060A168084381
:10243000616840EA0107CA200A491C31086053203C
:102440000860B6F5807F03D106481430076002E0CB
:10245000044818300760FF2002491C310860BDE8BD
:10246000F0810000082800402DE9F04105460C46A7
:10247000002600274DB9607800F01000102804D124
:10248000607820F010000A30607005B908E06078CC
:10249000FFF72DFE0646A078FFF729FE064600BF8F
:1024A00055B1E0780004617840EA0120A178084342
:1024B000217840EA413611E0E078FFF723FE4FEA49
:1024C00000486078FFF71EFE48EA0028A078FFF772
:1024D00019FE48EA0008207848EA4036CA20124926
:1024E000086053200860FFF743FE08B9002714E096
:1024F0000E4830400C4920390860FFF761FE0A4859
:102500001C38006800F0200030B900F07FF808B9EE
:10251000002702E0012700E00127FF2002490860B0
:102520003846BDE8F0810000242800403FFFFF004E
:102530002DE9F04105460C46002600274DB92E48EE
:10254000006800F0400000B102E00020E07000BF31
:102550000DE02948006800F0400020B12078FFF726
:10256000C6FD064602E00020E07000BF00BF55B186
:1025700020780004617840EA0120A1780843E178DE
:1025800040EA014611E02078FFF7BCFD4FEA004821
:102590006078FFF7B7FD48EA0028A078FFF7B2FDA2
:1025A00048EA0008E07848EA0046CA2012491C318F
:1025B000086053200860FFF7DBFD08B9002713E02F
:1025C0000E4830400C4908390860FFF7F9FD0A4809
:1025D000006800F0200030B900F018F808B90027B2
:1025E00002E0012700E00127FF2003491C310860B9
:1025F0003846BDE8F0810000082800407F7F7F005A
:102600000021C170017041708170704708B50022CF
:10261000009200200021CA22134B1A6053221A6034
:10262000114A183A126822F0A0020F4B183B1A60A8
:1026300000BF0D4A183A126802F02001009A521C9D
:102640000092009AB2F5004F01D00029F1D0064A5D
:10265000183A126802F020020AB1012000E00020BE
:10266000FF22014B1A6008BD242800402DE9F04FDD
:1026700091B004460E4630222B4904A8FDF756FDC2
:10268000E078002814DDE078A0F1010A012000EBD9
:102690009A09E078C11700EB91718910A0EB8101D4
:1026A00021B96178022901DD012509E0002507E053
:1026B0004FF000096078022801DD012500E00025C7
:1026C000E07840F26D1101FB00916078401E04AA91
:1026D00052F820000844A1780844401E054431788F
:1026E00005EB450201EBC201C1EB0111727802EB6F
:1026F0008101C1EB0111B27802EB8100FDF7C1FE4F
:1027000007460A4A0A4BFDF73CFE0022094BCDE979
:102710000001FDF71DFDCDE90201FDF7BFFE834677
:10272000584611B0BDE8F08FFC4C0008FCA9F1D26E
:102730004D6200400000E03F70B5044600F030F804
:102740000546A54201D32D1B02E002482844051B83
:10275000284670BD853ED85B70B5044600F020F871
:10276000054600BF2846FFF7E7FFA042FAD370BD39
:1027700010B500F015F8044607480068844203D3FA
:1027800005480068241A04E0044820440249096806
:10279000441A204610BD0000A4010020853ED85BED
:1027A0001CB5FFF733FF01A90020FFF75BFD694669
:1027B0000020FFF70FFD01A96846FFF757FF1CBD7A
:1027C00010B50748007850B900F046F800F00CF852
:1027D00002210448FEF7F4FE01200149087010BDF3
:1027E000A0010020AC01002000B587B04FF40030FC
:1027F000FEF794FB4FF40030059000208DF8180090
:1028000008208DF8190001208DF81A0005A8FEF7A0
:1028100097FB29208DF8000002208DF80100002090
:102820008DF8020001208DF803006846FFF7C4F818
:102830004FF00040029001AAC10D0020FFF79EFD5D
:1028400000214FF48050FFF735FD00214FF48070D8
:10285000FFF700FC07B000BD00B585B001210807F7
:10286000FFF7C0FA0120FFF75DFA0120FFF7E0FB58
:102870000020FFF7DDFB0120FFF7A4FB00BF49208C
:10288000FFF770FB0028FAD04FF48030FFF7AEFB63
:102890000120FFF7A5FB0320039004900020029085
:1028A00002A8FFF739FD01A8FFF7AAFE6846FFF767
:1028B00057FC69460120FFF7D7FD01A90120FFF76A
:1028C00037FE05B000BD000070B50446DCB1322C07
:1028D00008D2022C00D20224002201210D48FFF769
:1028E0003FF804E0002202210A48FFF739F8FEF71A
:1028F0004FFC0546022D02D107480068241A2046E5
:1029000000F00CF804E0002202210248FFF728F84A
:1029100070BD0000AC010020A80100202DE9F047A7
:1029200088B0044600F0D0F8FFF770FE07A9002039
:10293000FFF798FC06A90020FFF74CFC07A906A8A2
:10294000FFF794FE5A4908602046FDF79AFD0746B6
:10295000584A594BFDF7A3FCCDE90001FDF79EFD58
:102960000446564884420AD99DF81E609DF81D9081
:102970009DF81CA09DF81A001930C5B24FE0002246
:102980000020002100233C27B4FBF7FC07FB1C4779
:102990009DF81EC06744FAB23C27B4FBF7F4B4FBC1
:1029A000F7FC07FB1C479DF81DC06744F8B23C27A5
:1029B000B4FBF7F41827B4FBF7FC07FB1C479DF8A2
:1029C0001CC06744F9B21827B4FBF7F79DF81AC08A
:1029D0006744FBB23C2792FBF7FC07FB1C27FEB2C7
:1029E0003C2792FBF7F70744F8B23C2790FBF7FC33
:1029F00007FB1C0707F0FF093C2790FBF7F70F4484
:102A0000F9B2182791FBF7FC07FB1C1707F0FF0A28
:102A1000182791FBF7F71F44FBB21D4600BF9DF836
:102A20001B00C11700EB91718910A0EB810181B9E6
:102A30009DF81900401E2249085CA84219DA9DF849
:102A40001900401E085C95FBF0F100FB1150C5B267
:102A50000FE09DF81900401E1A49085CA84208DAE8
:102A60009DF81900401E085C95FBF0F100FB115029
:102A7000C5B28DF80A608DF809908DF808A08DF820
:102A8000145000208DF80B000490039002AA4FF41C
:102A90008071FFF773FCFFF7B9FD01210803FFF711
:102AA00009FC01210802FFF7D5FA08B0BDE8F0875C
:102AB000A4010020FCA9F1D24D62004080F5200065
:102AC000F04C0008E44C000810B54FF48070FFF79C
:102AD00027FB00214FF48050FFF7ECFB00214FF45F
:102AE0008070FFF7B7FA10BD704770B504460D4609
:102AF000AAB22146022001F045FB70BD10B5044684
:102B0000062C22D2DFE804F02103090F151B072150
:102B10000F4800F09DFB012010BD07210D4800F07B
:102B200097FB0220F8E707210B4800F091FB0320F8
:102B3000F2E70721094800F08BFB0420ECE70721AE
:102B4000074800F085FB0520E6E70020E4E70000E9
:102B5000C8000020CF000020D6000020DD000020AB
:102B6000E400002010B55548007820F00100401C1A
:102B7000524908705249C86A80475148016B052084
:102B8000884700BF4F48007858B14F480078022866
:102B900007DB4B48438D00F1140201464BA001F0C6
:102BA00089FB00BF6420FEF7A2F84448007820F0BB
:102BB0000400001D414908704F49C86A80474E48CB
:102BC000016B0320884700BF3E48007858B13E485B
:102BD0000078022807DB4848438D00F114020146C3
:102BE00046A001F067FB00BF6420FEF780F8334881
:102BF000007820F008000830304908704A49C86A57
:102C000080474948016B0320884700BF2D48007862
:102C100058B12D480078022807DB4348438D00F166
:102C20001402014641A001F045FB00BF6420FEF7FD
:102C30005EF82248007820F0100010301F4908701C
:102C40004549C86A80474448016B0320884700BF54
:102C50001C48007858B11C480078022807DB3E4821
:102C6000438D00F11402014630A001F023FB00BFA8
:102C70006420FEF73CF81148007820F00200801C28
:102C80000E4908703549C86A80473448016B0320F3
:102C9000884700BF0B48007858B10B4800780228DD
:102CA00007DB2E48438D00F1140201462CA001F0F1
:102CB00001FB00BF6420FEF71AF810BD00000020E1
:102CC000F40000200302002004020020504D322EA8
:102CD00035206465766963653A2573207C207665C6
:102CE0007273696F6E3A202573207C20756E69744B
:102CF000202564200A200000400100204C696768FC
:102D000074206465766963653A2573207C20766556
:102D10007273696F6E3A202573207C20756E69741A
:102D2000202564200A2000008000002048545532ED
:102D30003144206465766963653A2573207C20768A
:102D4000657273696F6E3A202573207C20756E69F9
:102D500074202564200A2000440000200800002080
:102D600042617474657279206465766963653A2599
:102D700073207C2076657273696F6E3A202573200C
:102D80007C20756E6974202564200A2000000000F4
:102D90002DE9F84305460F4685490878FDF722FFDF
:102DA0000646002400BF8348007838B18248007886
:102DB000022803DB314681A001F07CFA00BF6420C9
:102DC000FDF795FFB7EB460F02DA0020BDE8F88368
:102DD0007748007800F0010000B300BF8049886B9D
:102DE00080470328FAD17E49486B8047009000BF96
:102DF0007048007840B170480078022804DBBDF8C4
:102E0000001078A001F056FA00BF6420FDF76FFFB4
:102E10002819BDF800100180A41C00BF6448007888
:102E2000C0F3800050B300BF7749886B8047032808
:102E3000FAD17549486B80470090BDF8000000F456
:102E40007F40BDF80010C9B2084480B20090281934
:102E5000BDF800100180A41C00BF5648007840B1A6
:102E600055480078022804DBBDF8001067A001F087
:102E700021FA00BF6420FDF73AFF00BF4C480078FC
:102E8000C0F3001050B300BF6749886B8047032828
:102E9000FAD16549486B80470090BDF8000000F406
:102EA0007F40BDF80010C9B2084480B200902819D4
:102EB000BDF800100180A41C00BF3E48007840B15E
:102EC0003D480078022804DBBDF8001057A001F04F
:102ED000F1F900BF6420FDF70AFF00BF3448007815
:102EE000C0F3C00070B300BF5949886B8047032806
:102EF000FAD15749486B80470090BDF8000000F4B4
:102F00007F40BDF80010C9B2084480B20090281973
:102F1000BDF800100180A41C00BF2648007860B1F5
:102F200025480078022808DBBDF800000A2190FB44
:102F3000F1F8414647A001F0BDF900BF6420FDF75C
:102F4000D6FE00BF4FF47A70FDF7D1FE1848007826
:102F5000C0F3400050B300BF4749886B8047032847
:102F6000FAD14549486B80470090BDF8000000F455
:102F70007F40BDF80010C9B2084480B20090281903
:102F8000BDF800100180A41C00BF0A48007840B1C1
:102F900009480078022804DBBDF8001037A001F0D2
:102FA00089F900BF6420FDF7A2FE00BF20460DE7AF
:102FB0000000002003020020040200203D3D3D3DB2
:102FC0003D3D3E207570646174652073656E736F5E
:102FD00072206E756D626572203A2564200A2000A9
:102FE000F40000203D3D3D3D3D3D3E2050414E54CE
:102FF000454E475F706D322E352073656E736F726C
:10300000203A2564200A2000400100203D3D3D3D3E
:103010003D3D3E206C696768742073656E736F7206
:10302000203A2564200A2000800000203D3D3D3DDF
:103030003D3D3E204854553231442048756D695F0E
:1030400073656E736F72203A2564200A20000000B9
:10305000440000203D3D3D3D3D3D3E20485455321D
:1030600031442054656D705F73656E736F72203AE2
:103070002564200A20000000080000203D3D3D3D61
:103080003D3D3E20626174746572792073656E7394
:103090006F72203A2564200A2000000070B59AB0B3
:1030A00005460E46012D6ED1F4B2FE2C03D1FE2052
:1030B0004B49087029E04B48007818BB012C03D01D
:1030C000022C01D0032C1DD145480078FE2815D1D3
:1030D000012044490870FE21434802780078401CD2
:1030E000414B187041488154184601780078401CC3
:1030F0001A4610703D4844541AB070BD002038493B
:10310000087002E00020364908703648007838B16F
:10311000354801780078401C334A107033484454D5
:1031200031480078FE2804DB00202F4908702D4923
:103130000870EF2C51D100202A4908702A480278E3
:103140002A496846FEF760FA682269462848FCF773
:10315000EDFF00216846FEF7C7FA68226946254858
:10316000FCF7E4FF0020204908702148007803287C
:103170000AD11F48401D01F05FFD1E484188001D17
:10318000FFF7B3FC29E029E019480078022809D1AB
:103190001749087901F044FA16484188001DFFF7E5
:1031A000A4FC1AE012480078012805D11148418892
:1031B000001DFFF79AFC10E00D480078042804D1A8
:1031C0000B49087901F044FA07E00948007805281E
:1031D00003D10749087901F061FA00BF00BF8BE70E
:1031E0000102002000020020020200203C0E00200C
:1031F000D40D00206C0D00200EB5C8220B490C48E0
:10320000FDF7FAFE00200090019001234FF41652C2
:1032100002210290184600F093FE064800231A4649
:1032200002210090012000F0DFFF0EBDA40C002061
:10323000980C00203932000870B504460D46012C68
:1032400003D1E9B20148FDF7F8FE70BD980C0020EB
:1032500070B504460D46AAB22146012000F092FF47
:1032600070BD00000CB50020019000903E48006841
:1032700040F480303C49086000BF3B48006800F4DF
:10328000003000900198401C0190009818B90198F6
:10329000B0F5A06FF1D13448006800F4003010B1EF
:1032A0000120009001E0002000900098012859D1F1
:1032B0002E48006840F004002C4908600846006869
:1032C00040F0020008600846006840F00100086015
:1032D00025482430006840F080502349243108609C
:1032E000C8142349086000BF2148406800F010005E
:1032F0000028F9D11C48083000681B4908310860D3
:1033000008460068086008460068086008460068CB
:1033100020F47D0008600846006840F40D00086055
:103320001148006840F080700F49086000BF0E48E7
:10333000006800F000700028F9D00B4808300068E1
:1033400020F003000849083108600846006840F092
:103350000300086000BF04480830006800F00C005B
:103360000C28F8D10CBD000000380240003C02409F
:10337000007000402DE9F14FFDF710FF82468B46AB
:1033800000BF0098FDF77DF806460022094BFCF7C8
:10339000F8FF04460D46FDF701FF064652465B4620
:1033A000FCF777FF804622462B46FDF7A3F8E8D3CB
:1033B000BDE8F88F00408F402DE9F14FFDF7EEFE9C
:1033C00082468B4600BF0098FDF75BF80646002258
:1033D000094BFCF7D6FF04460D46FDF7DFFE064617
:1033E00052465B46FCF755FF804622462B46FDF7CA
:1033F00081F8E8D3BDE8F88F80842E4110B54FF0F6
:103400003332044B044903C9FCF7A2FE024A03C24B
:1034100010BD000033331040C801002010B515481E
:10342000006840F480701349086012480830006852
:10343000114908400F49083108600E4800680F49DB
:1034400008400C4908600846006820F480200860A5
:1034500008480830006820F47D00064908310860FB
:103460000020091D0860FFF7FDFE4FF000600449D1
:10347000086010BD003802400CC0FF88FEFFFEEE61
:1034800008ED00E002460648016804E0914201D1DF
:103490000120704749690029F8D10020F9E70000B0
:1034A0000802002010B5FFF763F910BD0023036088
:1034B00043600372C16002614361704770B50446A6
:1034C0000E460848056825B12068301A286000209B
:1034D000287265610120207202480460006800F0D3
:1034E000DBF870BD08020020F0B50C460025002274
:1034F000174E33683668716931B90668361B066045
:1035000058610026466122E025460E6832191BE00C
:10351000066896420AD20668761B066019B10E68E4
:103520000768F61B0E60586141610FE00B46496960
:1035300039B915460668761B066058610026466153
:1035400004E015460E683244002BE1D100BFF0BD07
:103550000802002070B500250026FDF7CDFA40488E
:10356000006810B9FDF7D2FA70BDFFF79BFF054662
:1035700000BF3C48007868B13B480078042809DB6C
:10358000374800680368364800682A46016937A052
:1035900000F090FE00BF324800680068401CA8425E
:1035A0001AD22F48006800682E1A00202C4909689A
:1035B00008602B48006844690BE02068B04203D9DA
:1035C0002068801B206006E02068361A00202060FA
:1035D0006469002CF1D111E0214800680068401EA8
:1035E000A84207D91E4800680068401B1C490968AA
:1035F000086003E000201A490968086000201849A3
:10360000096808720BE016480468006840691449AC
:10361000086000206061E06808B1E06880471048F9
:10362000006820B10E48006800680028EBD00C4804
:10363000006868B10A480068007A01280BD00120B0
:103640000749096808720648006800F025F802E09A
:103650000020FFF739F9FDF759FA00BF84E70000B1
:10366000080200200302002004020020203C2573F1
:103670003E20656C61707365642074696D652025FA
:10368000646D732C207374616D702074696D652096
:1036900025646D73200D0A0010B504462068FFF7FD
:1036A00013F910BD70B504460D46204600F052F8DF
:1036B0002560656070BD000070B5044600250026D9
:1036C000FDF71AFA1CB12046FFF7DCFE10B1FDF73A
:1036D0001DFA70BD6068206000202072206830B93B
:1036E000E06808B1E0688047FDF710FAF1E7184894
:1036F000006820B920462168FFF7E0FE23E0144867
:103700000068007A01280FD1FFF7CCFE054610486B
:1037100000680068A84202D20D48006805680C489D
:1037200000680068461B02E00948006806682068D7
:10373000B04204D231462046FFF7C0FE03E03146D6
:103740002046FFF7D1FEFDF7E1F900BFC1E7000019
:10375000080200202DE9F04105464FF00008002640
:10376000FDF7CAF9354807680468006800B11DB95B
:10377000FDF7CCF9BDE8F08130480068A84244D19B
:103780002E480068007A01282AD1FFF78BFE804678
:103790002868404501D2D5F800802868A0EB0806CB
:1037A000264800684069B8B10020244909680872B9
:1037B000224800684069214908600846006800689E
:1037C00030440968086001201C49096808721B48D8
:1037D0000068FFF761FF2CE000201849086028E02E
:1037E00016480068406960B12E6814480068406956
:1037F000124908600846006800683044096808609B
:1038000017E000200D49086013E02E680EE0AC427E
:103810000AD1606928B164697C6120683044206005
:1038200001E000247C6103E027466469002CEED1AE
:1038300000BFFDF76BF900BF9CE700000802002005
:1038400010B540F225313C4800F0F1F9A0B101215A
:10385000394800F0DFF960B9374800F09DFA0446B6
:103860003648006840B1E1B2344802680120904710
:1038700002E0314800F090FA40F227712E4800F043
:10388000D6F960B12D48006820B12C4800210268AB
:103890000846904740F22771274800F051F940F25E
:1038A0002551254800F0C3F9C8B10121224800F094
:1038B000B1F960B9204800F06FFA04461F4800686B
:1038C00040B1E1B21D4802680120904702E01A4869
:1038D00000F062FA40F22551174800F031F940F645
:1038E0006A11154800F0A3F980B1134800F054FAAA
:1038F00004461248006820B11048002102680220E6
:10390000904740F66A110C4800F01AF928210A483D
:1039100000F08DF978B1084800F03EFA04460748F7
:10392000006820B105480021026803209047282143
:10393000014800F005F910BD003801408003002067
:1039400010B540F225313C4800F071F9A0B10121D9
:10395000394800F05FF960B9374800F01DFA0446B5
:103960003648406840B1E1B234484268012090478F
:1039700002E0314800F010FA40F227712E4800F0C2
:1039800056F960B12D48406820B12C4800214268AA
:103990000846904740F22771274800F0D1F840F2DE
:1039A0002551254800F043F9C8B10121224800F013
:1039B00031F960B9204800F0EFF904461F4840682B
:1039C00040B1E1B21D4842680120904702E01A4828
:1039D00000F0E2F940F22551174800F0B1F840F646
:1039E0006A11154800F023F980B1134800F0D4F9AA
:1039F00004461248406820B1104800214268022065
:103A0000904740F66A110C4800F09AF828210A48BD
:103A100000F00DF978B1084800F0BEF904460748F7
:103A2000406820B1054800214268032090472821C2
:103A3000014800F085F810BD0044004080030020DC
:103A400010B540F225313C4800F0F1F8A0B1012159
:103A5000394800F0DFF860B9374800F09DF90446B6
:103A60003648806840B1E1B234488268012090470E
:103A700002E0314800F090F940F227712E4800F042
:103A8000D6F860B12D48806820B12C4800218268AA
:103A90000846904740F22771274800F051F840F25D
:103AA0002551254800F0C3F8C8B10121224800F093
:103AB000B1F860B9204800F06FF904461F488068EB
:103AC00040B1E1B21D4882680120904702E01A48E7
:103AD00000F062F940F22551174800F031F840F645
:103AE0006A11154800F0A3F880B1134800F054F9AA
:103AF00004461248806820B11048002182680220E4
:103B0000904740F66A110C4800F01AF828210A483C
:103B100000F08DF878B1084800F03EF904460748F7
:103B2000806820B105480021826803209047282141
:103B3000014800F005F810BD004800408003002057
:103B400010B50022002340F66A14A14200D100BF44
:103B50000A1201249440A3B2DC43048010BD21B1B9
:103B6000828942F40052828104E082894DF6FF731B
:103B70001A4082817047000010B5044620488442F4
:103B800009D101218803FEF75DF900214FF480403F
:103B9000FEF758F932E01B48844209D1012148045C
:103BA000FEF730F900214FF40030FEF72BF925E045
:103BB0001548844209D101218804FEF723F9002128
:103BC0004FF48020FEF71EF918E01048844209D116
:103BD0000121C804FEF716F900214FF40020FEF77A
:103BE00011F90BE00A48844208D101210805FEF7CB
:103BF00009F900214FF48010FEF704F910BD000010
:103C0000003801400044004000480040004C0040A3
:103C10000050004002460020B1F5007F00D100BFF7
:103C200013880B400BB1012000E00020704770B5F5
:103C30000246002400230025002040F66A16B14207
:103C400000D100BFC1F3421501F01F03012606FA9F
:103C500003F3012D02D19689334006E0022D02D1F3
:103C6000168A334001E0968A33400C12012606FA88
:103C700004F41688344013B10CB1012000E0002098
:103C800070BDF0B50346002400260025002040F654
:103C90006A17B94200D100BF1846C1F3421401F0BF
:103CA0001F06012707FA06F5012C01D10C3004E0AC
:103CB000022C01D1103000E014301AB107682F43F4
:103CC000076002E00768AF430760F0BD2DE9FF47DA
:103CD00005460E460024A14600BFA046B08900B1AB
:103CE00000BF2C8A24F44054F08804432C82AC8911
:103CF00041F20C608443B0883189084371890843DC
:103D00000443AC81AC8A24F44074B0890443AC828F
:103D10006846FEF7A7F81F48854202D1DDF80C90EF
:103D200001E0DDF80890A88900F4004040B109EBFB
:103D3000C90000EB091031684900B0FBF1F707E05A
:103D400009EBC90000EB091031688900B0FBF1F7FD
:103D50006420B7FBF0F004012009642101FB107816
:103D6000A88900F4004040B1322000EBC800B0FB4D
:103D7000F1F000F00700044308E0322000EB0810E7
:103D80006421B0FBF1F000F00F0004432C81BDE88A
:103D9000FF8700000038014001468888C0F3080012
:103DA0007047C1F3080282807047000038B50446AE
:103DB0000D46CCB969460D48FDF724F930B900220B
:103DC0009DF80010104600F0B5F90CE000200849FD
:103DD000087000220121104600F082F80122022121
:103DE0000448FDF7BDFD00BF38BD00008C0C00206D
:103DF000F4010020EC0100202DE9F84F04460D46A7
:103E000044B9344E09274FF00A084FF00B094FF020
:103E10000C0A16E0012C07D12F4E02274FF00308A1
:103E20004FF00009A2460CE0022C08D12B4E1A27B5
:103E30004FF01B084FF004094FF0040A01E000BFE7
:103E4000FEE700BF40213046FFF7E4FE0028F9D02E
:103E500000213046FFF783FE002001230246014681
:103E600000903846FDF7FAF900200123024601468A
:103E700000904046FDF7F2F9012D08D10020012302
:103E80000246014600905046FDF7E8F91CE0022D7D
:103E900008D1002001230246014600904846FDF764
:103EA000DDF911E0032D0FD1002001230246014668
:103EB00000905046FDF7D2F900200123024601464A
:103EC00000904846FDF7CAF93046FFF755FEBDE8B9
:103ED000F88F0000003801400044004000480040D6
:103EE0002DE9F04104460E4617460CB9114D09E084
:103EF000012C01D1104D05E0022C01D10F4D01E044
:103F000000BFFEE7012F09D106F0010078B10122C0
:103F100040F227712846FFF7B4FE08E006F00100E2
:103F200028B1002240F227712846FFF7AAFEBDE81B
:103F3000F08100000038014000440040004800408B
:103F40002DE9FF4F89B006460F469846DDE9175A1E
:103F5000DDF858907EB9DFF8D0B10724092004902D
:103F60000A2003900B2002900C200190012188036D
:103F7000FDF758FF24E0012E0FD1DFF8B0B1072480
:103F80000220049003200390002002900120019061
:103F900001214004FDF726FF12E0022E0ED1DFF8CA
:103FA00090B107241A2004901B2003900420029053
:103FB000019001210004FDF715FF01E000BFFEE7BD
:103FC00001230022022100940498FDF747F9012300
:103FD0000022022100940398FDF740F91FB9082040
:103FE000ADF81E000AE0012F03D10420ADF81E0039
:103FF00004E0022F02D10C20ADF81E000B980590B2
:10400000B8F1000F0ED16DB10020ADF81800012DF0
:1040100003D1A802ADF81C0023E04FF4C060ADF856
:104020001C001EE0B8F1010F06D12DB90020ADF83B
:104030001800ADF81C0014E0B8F1010F0FD175B1F4
:104040004FF48050ADF81800012D03D18010ADF869
:104050001C0006E04FF4C060ADF81C0001E000BF9A
:10406000FEE7B9F1000F03D10020ADF81A0016E009
:10407000B9F1010F04D14FF48050ADF81A000EE0F1
:10408000B9F1020F04D14FF40050ADF81A0006E068
:10409000B9F1030F03D14FF44050ADF81A00BAF153
:1040A000000F03D10020ADF8200032E0BAF1010F7B
:1040B0000BD101230022022100940198FDF7CEF8D4
:1040C0004FF48070ADF8200023E0BAF1020F0BD15D
:1040D00001230022022100940298FDF7BFF84FF45B
:1040E0000070ADF8200014E0BAF1030F11D10123E4
:1040F0000022022100940198FDF7B0F8012300226C
:10410000022100940298FDF7A9F84FF44070ADF831
:10411000200005A95846FFF7D9FD01215846FFF7B1
:104120001EFD0DB0BDE8F08F003801400044004096
:10413000004800402DE9F04104460E4617460CB9F0
:104140000D4D09E0012C01D10C4D05E0022C01D1EF
:104150000B4D01E000BFFEE7F1B22846FFF721FE5C
:10416000012F06D100BF80212846FFF753FD00280C
:10417000F9D0BDE8F0810000003801400044004063
:10418000004800402DE9F04107460D461646002440
:1041900006E0295D01223846FFF7CCFF601C84B29F
:1041A000B442F6DBBDE8F08138B504461CB92520E1
:1041B0008DF800000DE0012C03D126208DF80000C1
:1041C00007E0022C03D127208DF8000001E000BF9A
:1041D000FEE700208DF801008DF802008DF8030045
:1041E0006846FDF7E9FB38BD2DE9F84304460D4666
:1041F00090469946089F34B9244E25208DF800003A
:104200002348076013E0012C06D1224E26208DF8AA
:1042100000001F4847600AE0022C06D11E4E2720EE
:104220008DF800001A48876001E000BFFEE700211A
:104230003046FFF794FC05F0020028B1012240F25D
:1042400025513046FFF71DFD05F0040028B101227D
:1042500040F66A113046FFF714FD05F0080020B162
:10426000012228213046FFF70CFD8DF801808DF8E2
:10427000029001208DF803006846FDF79DFB0121A7
:104280003046FFF76CFCBDE8F883000000380140C1
:1042900080030020004400400048004000BFFEE7CB
:1042A00010B500F0A7FC01200149087010BD000006
:1042B000840100200FB4054B10B503A9044A0298ED
:1042C00000F018F810BC5DF814FB0000D54600089B
:1042D0000C02002002E008C8121F08C1002AFAD10F
:1042E00070477047002001E001C1121F002AFBD176
:1042F000704700002DE9FF4F8BB09A460F460546E8
:10430000002606E025280BD052460D9990476D1CDB
:10431000761C28780028F5D10FB03046BDE8F08F24
:104320000024A0460122604900E0044315F8013F43
:10433000203B02FA03F00842F7D128782E2817D143
:1043400015F8010F44F004042A280ED06FF02F0254
:104350002878A0F1300109290AD808EB880102EB7E
:10436000410100EB01086D1CF2E757F8048B6D1C4E
:10437000287869283ED006DC0028CDD063280BD0F1
:10438000642804D136E0732810D075284BD05246EB
:104390000D999047761C85E017F8040B8DF8000006
:1043A00000208DF80100E946012003E057F8049B46
:1043B0004FF0FF3061074FF0000401D40AE0641CA5
:1043C00044450DDA8442FADB19F804100029F6D1CD
:1043D00006E0641C8442FCDB19F804100029F8D1C3
:1043E000264404E019F8010B52460D999047641ECB
:1043F000F8D257E001CF4FF00A0B002802DA404212
:104400002D2102E0210504D52B218DF82410012156
:1044100003E0E10705D02021F7E70DF1200908911D
:104420000CE00021F9E701CF4FF00A0BF9E75946FC
:10443000FCF7ACF801F1300209F8012D0028F6D1A3
:10444000ADEB090000F1200B600701D44FF001082B
:10445000D84502DDA8EB0B0000E0002080460024D8
:1044600006E009A85246005D0D999047641C761C31
:1044700008988442F5DB04E0302052460D999047BD
:10448000761CB8F10001A8F10108F5DC05E019F887
:10449000010B52460D999047761CBBF10001ABF120
:1044A000010BF4DC6D1C34E70928010070470000A3
:1044B00000B589B001210846FDF784FC4FF4805017
:1044C000019003208DF8080001A92448FCF7D5FDD0
:1044D0000120FDF771FD00BF2120FDF743FD0028FD
:1044E000FAD001214802FDF79DFC1D48FCF77EF93A
:1044F00000211B48FCF763F903A8FCF781FA0020B0
:1045000003908DF8100001208DF811000020059017
:10451000079001208DF8200003A91148FCF78CF9C1
:104520000623012212210E48FCF7B9F910210C488C
:10453000FCF76CF901224FF440310948FCF7A6F969
:1045400001210748FCF746F900BF40210448FCF769
:1045500069F90028F9D009B000BD0000000402404C
:10456000002401400148008870470000040000203A
:1045700010B50024002011490880FFF799FF10486A
:10458000FCF739FA04240FE000BF02210C48FCF7C5
:1045900049F90028F9D00A48FCF740F90749098889
:1045A000084406490880641E002CEDDC034800889E
:1045B000801002490880032010BD00000400002084
:1045C0000024014010B5FCF791FF4720FCF75EFF87
:1045D000FCF7CCFF0120FCF705FF04464FF6FF7007
:1045E00000EA04240020FCF7FDFE204484B2FCF71E
:1045F0009DFF204610BD10B5044600BFFCF776FFB6
:104600004620FCF743FFFCF7B1FF0028F6D1204617
:10461000FCF73CFFFCF7AAFFFCF788FF10BD000089
:1046200070B1012802D002280BD105E00121064A11
:104630001170064A117004E00021034A117000E075
:1046400000BF00BF70470000F8010020F901002002
:1046500030B1012805D0022809D0092811D10CE079
:1046600016E001210B4A11700B4A117010E0002175
:10467000084A1170084A11700AE00321064A1170B5
:1046800006E00121034A11700021034A117000BFA6
:1046900000BF7047F9010020F8010020022806D071
:1046A000032808D004280AD005280DD108E00121EC
:1046B000074A117009E00021054A117005E004E085
:1046C0000121034A117000E000BF00BF70470000E5
:1046D000F801002070B504460E46FCF70DFAE1B271
:1046E0000948FCF7AAFC054655B90848007838B9CE
:1046F000012211460020FFF7F3FB01200349087057
:10470000FCF704FA204670BD8C0C0020F401002058
:1047100070B502460C46FF25FF2309E012F8010B95
:1047200080EA03010648405C80EA05030548455CD1
:10473000201EA4F10106F4B2F0D143EA052070BDB9
:104740002C4D00082C4E00080148007870470000EE
:10475000F80100207047000010B5FCF70DFEFCF7D3
:10476000CDFD01200149087010BD0000BC000020F3
:104770000148008870470000C00000200148008800
:1047800070470000BE0000202DE9F04100262548BA
:10479000007830B94FF69270234908800320BDE8B5
:1047A000F081FCF7A3FE8020FCF770FEFCF7DEFE34
:1047B0008046E520FCF76AFEFCF7D8FE804600BF85
:1047C0006420FEF7D7FDFCF791FE8120FCF75EFE2A
:1047D000701C86B2FCF7CAFE80460A2E00D102E0A9
:1047E000B8F1000FECD100BF0120FCF7FBFD04463F
:1047F0000120FCF7F7FD05460020FCF7F3FDFCF770
:1048000095FE05F0FC0040EA042707EB4701C1EBE9
:10481000C710C11700EB11410914891F024A11800A
:104820000320BCE7BC000020C00000202DE9F04FB1
:1048300087B00026002004903248007838B94FF63F
:10484000927031490880032007B0BDE8F08FFCF773
:104850004DFE8020FCF71AFEFCF788FE0590E32051
:10486000FCF714FEFCF782FE059000BF6420FEF703
:1048700081FDFCF73BFE8120FCF708FE701C86B230
:10488000FCF774FE05900A2E00D102E0059800287E
:10489000ECD100BF0120FCF7A5FD04460120FCF788
:1048A000A1FD05460020FCF79DFDFCF73FFE05F04D
:1048B000FC0040EA04294846FBF7E3FD0746134A9B
:1048C000134BFBF7ECFC0022124BCDE90001FBF788
:1048D00058FD114A114BCDE90201FBF7DAFC824683
:1048E000FBF738FE04900498FBF7F1FD0746002221
:1048F0000B4BFBF7D4FC8246FBF7D0FD0249088046
:104900000320A1E7BC000020BE000020D7A3703D1B
:104910000AF765400000F040CDCCCCCCCC6C4740D1
:104920000000244010B59AB00446FE208DF8040023
:1049300001218DF805108DF8061073218DF80710F0
:1049400060218DF8081075218DF80910EF218DF880
:104950000A100720ADF8020000208DF80000682240
:1049600069462046FBF7E2FB1AB010BD10B52021C6
:104970000748FCF7F0FB6E20FEF7FCFC2021044802
:10498000FCF7EBFB0020034908700349087010BDD9
:1049900000000240F8010020F901002010B50221BA
:1049A0000648FCF7D8FB0520FEF7E4FC022103488B
:1049B000FCF7D3FB01200249087010BD0000024043
:1049C000F901002030B50246481E155C881E105CB7
:1049D00005EB002084B20023002002E0155C2B448C
:1049E000401CCD1E8542F9DCA34201D1012030BD1F
:1049F0000020FCE786B0634D002104910591FCF78F
:104A000091F80020604908706846FDF72BFAB7E07E
:104A10005D480078052876D2DFE800F003165AA03A
:104A2000AD005A48FCF7E8FEFEF79CF858A25C4936
:104A30005C48FEF73BFD5CA25F496048FEF736FD2F
:104A400001205149087098E0FCF7A8FBCDE904016A
:104A50003BE0FFF779FE012826D16420FCF747F9F7
:104A6000FFF79CFF56480068002809DD544801689C
:104A7000544800F01DF94FF4FA70FCF738F90BE0D8
:104A800000BF5148007830B150480078022802DB5E
:104A90004FA0FFF70FFC00BF41F28830FEF76AFC21
:104AA00003203949087011E000224F4B04A8FCF79D
:104AB000EFF850B129464148FEF7F4FD3F48FEF7B4
:104AC000FBFD04203049087000E0C2E700BF54E05D
:104AD000FFF73AFE032817D144480078401C4349A9
:104AE0000870084600780A2811DB0020087000F0E2
:104AF00095F8012024490870FFF738FF4FF4FA6059
:104B0000FEF738FC39E037E00020384908706420AF
:104B1000FCF7EDF8FFF742FF29480068002809DD9F
:104B200027480168274800F0C3F84FF4FA70FCF7F3
:104B3000DEF80BE000BF2448007830B1234800784D
:104B4000022802DB22A0FFF7B5FB00BF41F288304C
:104B5000FEF710FC03200C4908700EE0244804689E
:104B600021461048FEF79EFD0E48FEF7A5FD0420E5
:104B70000549087001E000E000BF00BFFCF77CFEC3
:104B800046E7000020BF020084010020294C0008F5
:104B90007478206E657874207061636B65740000B2
:104BA000651A0008100300205265636F6E6E65631E
:104BB000204A6F696E000000A1420008280300200F
:104BC00080010020100200200302002004020020C7
:104BD00053656E644275666665724C656E746820D6
:104BE0003D20300A0000000000004E408C010020F3
:104BF0008801002000B59BB001A8FFF793FE682252
:104C000001A90548FBF792FA03484188001DFDF70A
:104C10006CFF1BB000BD00006C0D00200149087046
:104C200070470000F80100204FF47A714143014AB7
:104C3000116070478801002070B504462078FA287A
:104C400002D0FB2819D10BE06078C42801D1FFF70E
:104C50008DFE6078C32802D109480A4908600CE03B
:104C60006078D12808D1E178A07801EB00252846AA
:104C700005490968884700BF00BF00BF70BD00003C
:104C80000400FA050CED00E0FC0100204FF0E020EC
:104C9000006920F004004FF0E021086103484861FA
:104CA0000846006940F00300086170474031F70092
:104CB00030B59BB004460D468020EAB20123214660
:104CC000009001A8FCF740FD682201A90448FBF709
:104CD0002DFA03484188001DFDF707FF1BB030BDCA
:104CE0006C0D00201F1C1F1E1F1E1F1F1E1F1E1FBE
:104CF0001F1D1F1E1F1E1F1F1E1F1E1F0000000046
:104D00001F0000003B0000005A0000007800000077
:104D100097000000B5000000D4000000F300000080
:104D200011010000300100004E01000000C181406F
:104D300001C0804101C0804100C1814001C080416B
:104D400000C1814000C1814001C0804101C080415B
:104D500000C1814000C1814001C0804100C181404B
:104D600001C0804101C0804100C1814001C080413B
:104D700000C1814000C1814001C0804100C181402B
:104D800001C0804101C0804100C1814000C181401B
:104D900001C0804101C0804100C1814001C080410B
:104DA00000C1814000C1814001C0804101C08041FB
:104DB00000C1814000C1814001C0804100C18140EB
:104DC00001C0804101C0804100C1814000C18140DB
:104DD00001C0804101C0804100C1814001C08041CB
:104DE00000C1814000C1814001C0804100C18140BB
:104DF00001C0804101C0804100C1814001C08041AB
:104E000000C1814000C1814001C0804101C080419A
:104E100000C1814000C1814001C0804100C181408A
:104E200001C0804101C0804100C1814000C0C1017A
:104E3000C30302C2C60607C705C5C404CC0C0DCD0A
:104E40000FCFCE0E0ACACB0BC90908C8D81819D97A
:104E50001BDBDA1A1EDEDF1FDD1D1CDC14D4D515AA
:104E6000D71716D6D21213D311D1D010F03031F19A
:104E700033F3F23236F6F737F53534F43CFCFD3DCA
:104E8000FF3F3EFEFA3A3BFB39F9F83828E8E929BA
:104E9000EB2B2AEAEE2E2FEF2DEDEC2CE42425E56A
:104EA00027E7E62622E2E323E12120E0A06061A1DA
:104EB00063A3A26266A6A767A56564A46CACAD6D8A
:104EC000AF6F6EAEAA6A6BAB69A9A86878B8B979FA
:104ED000BB7B7ABABE7E7FBF7DBDBC7CB47475B52A
:104EE00077B7B67672B2B373B17170B0509091511A
:104EF0009353529296565797559594549C5C5D9D4A
:104F00005F9F9E5E5A9A9B5B995958988848498939
:104F10004B8B8A4A4E8E8F4F8D4D4C8C44848545E9
:104F20008747468682424383418180404C4F000838
:104F30000000002010020000680700083C50000834
:104F40001002002030110000E442000881D0086205
:104F50006174746572790510302E31761205120372
:104F600013B1441B08AD041365451B0871040813F5
:104F7000146875743231645F74656D706572617444
:104F80007572653C120212041359471B0855041A26
:104F90007D047B2D483C480868756D6964697480A0
:104FA00009123C1A037A693C1A71041A8904C11463
:104FB000424DE42C01017407111E0173424DE207BA
:104FC0001D71424DE1153907115B0170C021080EBA
:104FD0001950414E54454E475F706D325F35EC1AA3
:104FE000010213051B1408F51A1B0821081A2D04C9
:104FF000F201800D425F4C55585F53454E534F525E
:1050000009124C12041206131D0A1B081B041A3144
:10501000041A3D04C1BB60EA7951B202A90C011C1B
:10502000380A030406080C10182030482C02030428
:0C50300004051A06070809AA015C00002C
:04000005080000F5FA
:00000001FF
